{
  "address": "0x894ccAAf338B29ab3A87788a072955594AAF6F0C",
  "abi": [
    {
      "inputs": [
        {
          "internalType": "address",
          "name": "_staking",
          "type": "address"
        },
        {
          "internalType": "address",
          "name": "profitAddress_",
          "type": "address"
        },
        {
          "internalType": "address",
          "name": "marketingAddress_",
          "type": "address"
        },
        {
          "internalType": "address",
          "name": "technologyAddress_",
          "type": "address"
        },
        {
          "internalType": "address",
          "name": "USDT_",
          "type": "address"
        },
        {
          "internalType": "address",
          "name": "ROUTER_",
          "type": "address"
        }
      ],
      "stateMutability": "nonpayable",
      "type": "constructor"
    },
    {
      "anonymous": false,
      "inputs": [
        {
          "indexed": true,
          "internalType": "address",
          "name": "user",
          "type": "address"
        },
        {
          "indexed": true,
          "internalType": "address",
          "name": "newAdmin",
          "type": "address"
        }
      ],
      "name": "AdminTransferred",
      "type": "event"
    },
    {
      "anonymous": false,
      "inputs": [
        {
          "indexed": true,
          "internalType": "address",
          "name": "owner",
          "type": "address"
        },
        {
          "indexed": true,
          "internalType": "address",
          "name": "spender",
          "type": "address"
        },
        {
          "indexed": false,
          "internalType": "uint256",
          "name": "amount",
          "type": "uint256"
        }
      ],
      "name": "Approval",
      "type": "event"
    },
    {
      "anonymous": false,
      "inputs": [
        {
          "indexed": false,
          "internalType": "address",
          "name": "account",
          "type": "address"
        }
      ],
      "name": "ExcludedFromFee",
      "type": "event"
    },
    {
      "anonymous": false,
      "inputs": [
        {
          "indexed": false,
          "internalType": "address",
          "name": "account",
          "type": "address"
        }
      ],
      "name": "IncludedToFee",
      "type": "event"
    },
    {
      "anonymous": false,
      "inputs": [
        {
          "indexed": true,
          "internalType": "address",
          "name": "user",
          "type": "address"
        },
        {
          "indexed": true,
          "internalType": "address",
          "name": "newOwner",
          "type": "address"
        }
      ],
      "name": "OwnershipTransferred",
      "type": "event"
    },
    {
      "anonymous": false,
      "inputs": [
        {
          "indexed": true,
          "internalType": "address",
          "name": "from",
          "type": "address"
        },
        {
          "indexed": true,
          "internalType": "address",
          "name": "to",
          "type": "address"
        },
        {
          "indexed": false,
          "internalType": "uint256",
          "name": "amount",
          "type": "uint256"
        }
      ],
      "name": "Transfer",
      "type": "event"
    },
    {
      "inputs": [],
      "name": "AmountLPFee",
      "outputs": [
        {
          "internalType": "uint256",
          "name": "",
          "type": "uint256"
        }
      ],
      "stateMutability": "view",
      "type": "function"
    },
    {
      "inputs": [],
      "name": "AmountMarketingFee",
      "outputs": [
        {
          "internalType": "uint256",
          "name": "",
          "type": "uint256"
        }
      ],
      "stateMutability": "view",
      "type": "function"
    },
    {
      "inputs": [],
      "name": "STAKING",
      "outputs": [
        {
          "internalType": "address",
          "name": "",
          "type": "address"
        }
      ],
      "stateMutability": "view",
      "type": "function"
    },
    {
      "inputs": [],
      "name": "TechnologyFee",
      "outputs": [
        {
          "internalType": "uint256",
          "name": "",
          "type": "uint256"
        }
      ],
      "stateMutability": "view",
      "type": "function"
    },
    {
      "inputs": [],
      "name": "USDT",
      "outputs": [
        {
          "internalType": "address",
          "name": "",
          "type": "address"
        }
      ],
      "stateMutability": "view",
      "type": "function"
    },
    {
      "inputs": [
        {
          "internalType": "address",
          "name": "",
          "type": "address"
        }
      ],
      "name": "_bcList",
      "outputs": [
        {
          "internalType": "bool",
          "name": "",
          "type": "bool"
        }
      ],
      "stateMutability": "view",
      "type": "function"
    },
    {
      "inputs": [],
      "name": "abandonedBalanceOwner",
      "outputs": [
        {
          "internalType": "address",
          "name": "",
          "type": "address"
        }
      ],
      "stateMutability": "view",
      "type": "function"
    },
    {
      "inputs": [],
      "name": "admin",
      "outputs": [
        {
          "internalType": "address",
          "name": "",
          "type": "address"
        }
      ],
      "stateMutability": "view",
      "type": "function"
    },
    {
      "inputs": [
        {
          "internalType": "address",
          "name": "",
          "type": "address"
        },
        {
          "internalType": "address",
          "name": "",
          "type": "address"
        }
      ],
      "name": "allowance",
      "outputs": [
        {
          "internalType": "uint256",
          "name": "",
          "type": "uint256"
        }
      ],
      "stateMutability": "view",
      "type": "function"
    },
    {
      "inputs": [
        {
          "internalType": "address",
          "name": "spender",
          "type": "address"
        },
        {
          "internalType": "uint256",
          "name": "amount",
          "type": "uint256"
        }
      ],
      "name": "approve",
      "outputs": [
        {
          "internalType": "bool",
          "name": "",
          "type": "bool"
        }
      ],
      "stateMutability": "nonpayable",
      "type": "function"
    },
    {
      "inputs": [
        {
          "internalType": "address",
          "name": "",
          "type": "address"
        }
      ],
      "name": "balanceOf",
      "outputs": [
        {
          "internalType": "uint256",
          "name": "",
          "type": "uint256"
        }
      ],
      "stateMutability": "view",
      "type": "function"
    },
    {
      "inputs": [
        {
          "internalType": "address",
          "name": "token",
          "type": "address"
        },
        {
          "internalType": "uint256",
          "name": "amount",
          "type": "uint256"
        }
      ],
      "name": "claimAbandonedBalance",
      "outputs": [],
      "stateMutability": "nonpayable",
      "type": "function"
    },
    {
      "inputs": [],
      "name": "coldTime",
      "outputs": [
        {
          "internalType": "uint40",
          "name": "",
          "type": "uint40"
        }
      ],
      "stateMutability": "view",
      "type": "function"
    },
    {
      "inputs": [],
      "name": "decimals",
      "outputs": [
        {
          "internalType": "uint8",
          "name": "",
          "type": "uint8"
        }
      ],
      "stateMutability": "view",
      "type": "function"
    },
    {
      "inputs": [],
      "name": "distributor",
      "outputs": [
        {
          "internalType": "contract Distributor",
          "name": "",
          "type": "address"
        }
      ],
      "stateMutability": "view",
      "type": "function"
    },
    {
      "inputs": [
        {
          "internalType": "address",
          "name": "account",
          "type": "address"
        }
      ],
      "name": "excludeFromFee",
      "outputs": [],
      "stateMutability": "nonpayable",
      "type": "function"
    },
    {
      "inputs": [
        {
          "internalType": "address[]",
          "name": "accounts",
          "type": "address[]"
        }
      ],
      "name": "excludeMultipleAccountsFromFee",
      "outputs": [],
      "stateMutability": "nonpayable",
      "type": "function"
    },
    {
      "inputs": [],
      "name": "getReserveU",
      "outputs": [
        {
          "internalType": "uint112",
          "name": "",
          "type": "uint112"
        }
      ],
      "stateMutability": "view",
      "type": "function"
    },
    {
      "inputs": [],
      "name": "getReserves",
      "outputs": [
        {
          "internalType": "uint112",
          "name": "",
          "type": "uint112"
        },
        {
          "internalType": "uint112",
          "name": "",
          "type": "uint112"
        }
      ],
      "stateMutability": "view",
      "type": "function"
    },
    {
      "inputs": [],
      "name": "inSwapAndLiquify",
      "outputs": [
        {
          "internalType": "bool",
          "name": "",
          "type": "bool"
        }
      ],
      "stateMutability": "view",
      "type": "function"
    },
    {
      "inputs": [
        {
          "internalType": "address",
          "name": "account",
          "type": "address"
        }
      ],
      "name": "includeInFee",
      "outputs": [],
      "stateMutability": "nonpayable",
      "type": "function"
    },
    {
      "inputs": [
        {
          "internalType": "address",
          "name": "account",
          "type": "address"
        }
      ],
      "name": "isExcludedFromFee",
      "outputs": [
        {
          "internalType": "bool",
          "name": "",
          "type": "bool"
        }
      ],
      "stateMutability": "view",
      "type": "function"
    },
    {
      "inputs": [],
      "name": "isFirstReserveU",
      "outputs": [
        {
          "internalType": "bool",
          "name": "",
          "type": "bool"
        }
      ],
      "stateMutability": "view",
      "type": "function"
    },
    {
      "inputs": [
        {
          "internalType": "address",
          "name": "account",
          "type": "address"
        }
      ],
      "name": "isReward",
      "outputs": [
        {
          "internalType": "uint256",
          "name": "",
          "type": "uint256"
        }
      ],
      "stateMutability": "view",
      "type": "function"
    },
    {
      "inputs": [
        {
          "internalType": "address",
          "name": "",
          "type": "address"
        }
      ],
      "name": "lastBuyTime",
      "outputs": [
        {
          "internalType": "uint40",
          "name": "",
          "type": "uint40"
        }
      ],
      "stateMutability": "view",
      "type": "function"
    },
    {
      "inputs": [],
      "name": "launchedAtTimestamp",
      "outputs": [
        {
          "internalType": "uint40",
          "name": "",
          "type": "uint40"
        }
      ],
      "stateMutability": "view",
      "type": "function"
    },
    {
      "inputs": [],
      "name": "marketingAddress",
      "outputs": [
        {
          "internalType": "address",
          "name": "",
          "type": "address"
        }
      ],
      "stateMutability": "view",
      "type": "function"
    },
    {
      "inputs": [
        {
          "internalType": "address[]",
          "name": "addresses",
          "type": "address[]"
        },
        {
          "internalType": "bool",
          "name": "value",
          "type": "bool"
        }
      ],
      "name": "multi_bclist",
      "outputs": [],
      "stateMutability": "nonpayable",
      "type": "function"
    },
    {
      "inputs": [],
      "name": "name",
      "outputs": [
        {
          "internalType": "string",
          "name": "",
          "type": "string"
        }
      ],
      "stateMutability": "view",
      "type": "function"
    },
    {
      "inputs": [],
      "name": "owner",
      "outputs": [
        {
          "internalType": "address",
          "name": "",
          "type": "address"
        }
      ],
      "stateMutability": "view",
      "type": "function"
    },
    {
      "inputs": [],
      "name": "poolStatus",
      "outputs": [
        {
          "internalType": "uint112",
          "name": "bal",
          "type": "uint112"
        },
        {
          "internalType": "uint40",
          "name": "t",
          "type": "uint40"
        }
      ],
      "stateMutability": "view",
      "type": "function"
    },
    {
      "inputs": [],
      "name": "presale",
      "outputs": [
        {
          "internalType": "bool",
          "name": "",
          "type": "bool"
        }
      ],
      "stateMutability": "view",
      "type": "function"
    },
    {
      "inputs": [],
      "name": "profitAddress",
      "outputs": [
        {
          "internalType": "address",
          "name": "",
          "type": "address"
        }
      ],
      "stateMutability": "view",
      "type": "function"
    },
    {
      "inputs": [
        {
          "internalType": "uint256",
          "name": "amount",
          "type": "uint256"
        }
      ],
      "name": "recycle",
      "outputs": [],
      "stateMutability": "nonpayable",
      "type": "function"
    },
    {
      "inputs": [
        {
          "internalType": "uint40",
          "name": "_coldTime",
          "type": "uint40"
        }
      ],
      "name": "setColdTime",
      "outputs": [],
      "stateMutability": "nonpayable",
      "type": "function"
    },
    {
      "inputs": [
        {
          "internalType": "address",
          "name": "addr",
          "type": "address"
        }
      ],
      "name": "setMarketingAddress",
      "outputs": [],
      "stateMutability": "nonpayable",
      "type": "function"
    },
    {
      "inputs": [],
      "name": "setPresale",
      "outputs": [],
      "stateMutability": "nonpayable",
      "type": "function"
    },
    {
      "inputs": [
        {
          "internalType": "address",
          "name": "addr",
          "type": "address"
        }
      ],
      "name": "setProfitAddress",
      "outputs": [],
      "stateMutability": "nonpayable",
      "type": "function"
    },
    {
      "inputs": [
        {
          "internalType": "address",
          "name": "addr",
          "type": "address"
        }
      ],
      "name": "setStaking",
      "outputs": [],
      "stateMutability": "nonpayable",
      "type": "function"
    },
    {
      "inputs": [
        {
          "internalType": "uint256",
          "name": "newValue",
          "type": "uint256"
        }
      ],
      "name": "setSwapAtAmount",
      "outputs": [],
      "stateMutability": "nonpayable",
      "type": "function"
    },
    {
      "inputs": [
        {
          "internalType": "address",
          "name": "addr",
          "type": "address"
        }
      ],
      "name": "setTechnologyAddress",
      "outputs": [],
      "stateMutability": "nonpayable",
      "type": "function"
    },
    {
      "inputs": [],
      "name": "swapAtAmount",
      "outputs": [
        {
          "internalType": "uint256",
          "name": "",
          "type": "uint256"
        }
      ],
      "stateMutability": "view",
      "type": "function"
    },
    {
      "inputs": [],
      "name": "swapTokenForFundByOwner",
      "outputs": [],
      "stateMutability": "nonpayable",
      "type": "function"
    },
    {
      "inputs": [],
      "name": "symbol",
      "outputs": [
        {
          "internalType": "string",
          "name": "",
          "type": "string"
        }
      ],
      "stateMutability": "view",
      "type": "function"
    },
    {
      "inputs": [
        {
          "internalType": "address",
          "name": "",
          "type": "address"
        }
      ],
      "name": "tOwnedU",
      "outputs": [
        {
          "internalType": "uint256",
          "name": "",
          "type": "uint256"
        }
      ],
      "stateMutability": "view",
      "type": "function"
    },
    {
      "inputs": [],
      "name": "technologyAddress",
      "outputs": [
        {
          "internalType": "address",
          "name": "",
          "type": "address"
        }
      ],
      "stateMutability": "view",
      "type": "function"
    },
    {
      "inputs": [],
      "name": "totalSupply",
      "outputs": [
        {
          "internalType": "uint256",
          "name": "",
          "type": "uint256"
        }
      ],
      "stateMutability": "view",
      "type": "function"
    },
    {
      "inputs": [
        {
          "internalType": "address",
          "name": "to",
          "type": "address"
        },
        {
          "internalType": "uint256",
          "name": "amount",
          "type": "uint256"
        }
      ],
      "name": "transfer",
      "outputs": [
        {
          "internalType": "bool",
          "name": "",
          "type": "bool"
        }
      ],
      "stateMutability": "nonpayable",
      "type": "function"
    },
    {
      "inputs": [
        {
          "internalType": "address",
          "name": "newOwner",
          "type": "address"
        }
      ],
      "name": "transferAbandonedBalanceOwnership",
      "outputs": [],
      "stateMutability": "nonpayable",
      "type": "function"
    },
    {
      "inputs": [
        {
          "internalType": "address",
          "name": "newAdmin",
          "type": "address"
        }
      ],
      "name": "transferAdmin",
      "outputs": [],
      "stateMutability": "nonpayable",
      "type": "function"
    },
    {
      "inputs": [
        {
          "internalType": "address",
          "name": "from",
          "type": "address"
        },
        {
          "internalType": "address",
          "name": "to",
          "type": "address"
        },
        {
          "internalType": "uint256",
          "name": "amount",
          "type": "uint256"
        }
      ],
      "name": "transferFrom",
      "outputs": [
        {
          "internalType": "bool",
          "name": "",
          "type": "bool"
        }
      ],
      "stateMutability": "nonpayable",
      "type": "function"
    },
    {
      "inputs": [
        {
          "internalType": "address",
          "name": "newOwner",
          "type": "address"
        }
      ],
      "name": "transferOwnership",
      "outputs": [],
      "stateMutability": "nonpayable",
      "type": "function"
    },
    {
      "inputs": [],
      "name": "uniswapV2Pair",
      "outputs": [
        {
          "internalType": "address",
          "name": "",
          "type": "address"
        }
      ],
      "stateMutability": "view",
      "type": "function"
    },
    {
      "inputs": [],
      "name": "uniswapV2Router",
      "outputs": [
        {
          "internalType": "contract IUniswapV2Router02",
          "name": "",
          "type": "address"
        }
      ],
      "stateMutability": "view",
      "type": "function"
    },
    {
      "inputs": [],
      "name": "updatePoolReserve",
      "outputs": [],
      "stateMutability": "nonpayable",
      "type": "function"
    }
  ],
  "transactionHash": "0x8e6e4635b296b3d1bb2eb30cc62b3744ed04a3de5965751645d8a6aedff65e4e",
  "args": [
    "0x7d9eBf6101e67c135d2ecA2f9DF6c8c11E6faF12",
    "0x971b6bB086D8Ce6C141C6aa34aE91993D16fD672",
    "0xA2E8B9C2762560A2d83f9dd076B5a50E35EB2D7a",
    "0x844Dd647A2Ca31acF5D776632064d4e6028f023E",
    "0x55d398326f99059fF775485246999027B3197955",
    "0x10ED43C718714eb63d5aA57B78B54704E256024E"
  ],
  "numDeployments": 1,
  "solcInputHash": "1d788683756d0a21089bdfbb1f7ae3d9",
  "bytecode": "0x6101606040526009805465ffffffffff001916613c001790556801158e460913d000006010553480156200003257600080fd5b5060405162003376380380620033768339810160408190526200005591620005ad565b60408051808201825260038082526241564160e81b60208084018290528451808601865292835282015260008054336001600160a01b031991821681178355600180548316821790556002805490921681179091559351929391926012926a0115673e073a8936c0000092889288929182917f8be0079c531659141344cd1fd0a4f28419497f9722a3daafe3b4186f6b6457e0908290a36040516001600160a01b038216906000907ff8ccb027dfcd135e000e9d45e6cc2d662578a8825d4c45b5e32e0adf67e79ec6908290a3506001600160a01b0380831660e052811660808190526040805163c45a015560e01b8152905163c45a0155916004808201926020929091908290030181865afa15801562000174573d6000803e3d6000fd5b505050506040513d601f19601f820116820180604052508101906200019a91906200062e565b6040516364e329cb60e11b81523060048201526001600160a01b038481166024830152919091169063c9c65396906044016020604051808303816000875af1158015620001eb573d6000803e3d6000fd5b505050506040513d601f19601f820116820180604052508101906200021191906200062e565b6001600160a01b031660a05260405182906200022d9062000582565b6001600160a01b039091168152602001604051809103906000f0801580156200025a573d6000803e3d6000fd5b506001600160a01b031660c0816001600160a01b031681525050816001600160a01b031660a0516001600160a01b0316630dfe16816040518163ffffffff1660e01b8152600401602060405180830381865afa158015620002bf573d6000803e3d6000fd5b505050506040513d601f19601f82011682018060405250810190620002e591906200062e565b6001600160a01b031614610100525060059050620003048582620006f8565b506006620003138482620006f8565b5060ff821661012052610140819052336000818152600760209081526040808320805486019055518481527fddf252ad1be2c89b69c2b068fc378daa952ba7f163c4a11628f55a4df523b3ef910160405180910390a350503060009081526008602090815260408083206080516001600160a01b03908116808652919093529281902060001990819055905163095ea7b360e01b8152600481019390935260248301528516925063095ea7b391506044016020604051808303816000875af1158015620003e4573d6000803e3d6000fd5b505050506040513d601f19601f820116820180604052508101906200040a9190620007c4565b50601480546001600160a01b038089166001600160a01b031992831617909255600d8054888416908316179055600e8054878416908316179055600f8054928616929091169190911790556200046261dead620004e0565b6200046d33620004e0565b6200047830620004e0565b6014546200048f906001600160a01b0316620004e0565b600d54620004a6906001600160a01b0316620004e0565b600e54620004bd906001600160a01b0316620004e0565b600f54620004d4906001600160a01b0316620004e0565b505050505050620007e8565b6000546001600160a01b03163314620005285760405162461bcd60e51b815260206004820152600660248201526510b7bbb732b960d11b604482015260640160405180910390fd5b6001600160a01b038116600081815260036020908152604091829020805460ff1916600117905590519182527ff1d6512ec7550bf605a5a38910e48fb6a57938ed74a5afa01753fa023001005c910160405180910390a150565b610147806200322f83390190565b80516001600160a01b0381168114620005a857600080fd5b919050565b60008060008060008060c08789031215620005c757600080fd5b620005d28762000590565b9550620005e26020880162000590565b9450620005f26040880162000590565b9350620006026060880162000590565b9250620006126080880162000590565b91506200062260a0880162000590565b90509295509295509295565b6000602082840312156200064157600080fd5b6200064c8262000590565b9392505050565b634e487b7160e01b600052604160045260246000fd5b600181811c908216806200067e57607f821691505b6020821081036200069f57634e487b7160e01b600052602260045260246000fd5b50919050565b601f821115620006f357600081815260208120601f850160051c81016020861015620006ce5750805b601f850160051c820191505b81811015620006ef57828155600101620006da565b5050505b505050565b81516001600160401b0381111562000714576200071462000653565b6200072c8162000725845462000669565b84620006a5565b602080601f8311600181146200076457600084156200074b5750858301515b600019600386901b1c1916600185901b178555620006ef565b600085815260208120601f198616915b82811015620007955788860151825594840194600190910190840162000774565b5085821015620007b45787850151600019600388901b60f8161c191681555b5050505050600190811b01905550565b600060208284031215620007d757600080fd5b815180151581146200064c57600080fd5b60805160a05160c05160e051610100516101205161014051612960620008cf600039600061043f015260006104af01526000818161081c01526109f201526000818161077d01528181611c9701528181611d4a01528181612211015281816122d2015261238e01526000818161075601528181611dfa01528181611e2d015281816121ab015281816121e601526122980152600081816105610152818161096b015281816111a3015281816111fe0152818161122f0152818161151a01528181611587015261178301526000818161041801528181611cee01526123e001526129606000f3fe608060405234801561001057600080fd5b506004361061035d5760003560e01c806382cf114c116101d3578063c54e44eb11610104578063efc4daf1116100a2578063f2fde38b1161007c578063f2fde38b14610899578063f6dcbcbc146108ac578063f851a440146108b5578063fdea8e0b146108c857600080fd5b8063efc4daf114610817578063f02286921461083e578063f17c103b1461088657600080fd5b8063dcc40744116100de578063dcc40744146107be578063dd1c35bc146107c6578063dd62ed3e146107d9578063ea2f0b371461080457600080fd5b8063c54e44eb14610778578063c6d2577d1461079f578063cfe0e619146107b557600080fd5b806394417e2311610171578063a1eef78a1161014b578063a1eef78a14610708578063a5ece9411461072b578063a9059cbb1461073e578063bfe109281461075157600080fd5b806394417e23146106da57806395d89b41146106ed57806397610f30146106f557600080fd5b806388a3e9e3116101ad57806388a3e9e31461068e5780638da5cb5b146106a15780638ff39099146106b4578063906e9dd0146106c757600080fd5b806382cf114c1461065257806384333ac514610665578063869175241461068557600080fd5b80633fecc2e2116102ad5780635342acb41161024b578063695901fe11610225578063695901fe1461060457806370a082311461061757806375829def146106375780637d28bb471461064a57600080fd5b80635342acb4146105b25780636108a3db146105de5780636402511e146105f157600080fd5b806349bd5a5e1161028757806349bd5a5e1461055c5780634d5ce038146105835780634da1c7b014610596578063511a6539146105a957600080fd5b80633fecc2e21461050f578063437823ec1461053657806344a00cb51461054957600080fd5b80631694505e1161031a578063220f6696116102f4578063220f66961461048a57806323b872dd14610497578063313ce567146104aa57806336543fb9146104e357600080fd5b80631694505e1461041357806318160ddd1461043a5780631a7abd971461046f57600080fd5b806306fdde03146103625780630902f1ac14610380578063095ea7b3146103a85780630b9c0f55146103cb5780631214a1a0146103e0578063123702e2146103e8575b600080fd5b61036a6108d5565b6040516103779190612455565b60405180910390f35b610388610963565b604080516001600160701b03938416815292909116602083015201610377565b6103bb6103b63660046124ba565b610a27565b6040519015158152602001610377565b6103de6103d93660046124ba565b610a94565b005b6103de610b8e565b600d546103fb906001600160a01b031681565b6040516001600160a01b039091168152602001610377565b6103fb7f000000000000000000000000000000000000000000000000000000000000000081565b6104617f000000000000000000000000000000000000000000000000000000000000000081565b604051908152602001610377565b6015546040516001600160701b039091168152602001610377565b6004546103bb9060ff1681565b6103bb6104a53660046124e4565b610bc2565b6104d17f000000000000000000000000000000000000000000000000000000000000000081565b60405160ff9091168152602001610377565b6009546104f990610100900464ffffffffff1681565b60405164ffffffffff9091168152602001610377565b6104f961051d366004612520565b60136020526000908152604090205464ffffffffff1681565b6103de610544366004612520565b610c34565b6103de61055736600461258e565b610cb9565b6103fb7f000000000000000000000000000000000000000000000000000000000000000081565b610461610591366004612520565b610d52565b6103de6105a4366004612520565b610d88565b610461600c5481565b6103bb6105c0366004612520565b6001600160a01b031660009081526003602052604090205460ff1690565b6103de6105ec3660046125de565b610dd9565b6103de6105ff366004612635565b610e7f565b6103de61061236600461264e565b610eae565b610461610625366004612520565b60076020526000908152604090205481565b6103de610645366004612520565b610efc565b6103de610f8b565b6103de610660366004612520565b611003565b610461610673366004612520565b60126020526000908152604090205481565b61046160105481565b6002546103fb906001600160a01b031681565b6000546103fb906001600160a01b031681565b6103de6106c2366004612520565b611051565b6103de6106d5366004612520565b61109f565b600f546103fb906001600160a01b031681565b61036a6110ed565b6014546103fb906001600160a01b031681565b6103bb610716366004612520565b60116020526000908152604090205460ff1681565b600e546103fb906001600160a01b031681565b6103bb61074c3660046124ba565b6110fa565b6103fb7f000000000000000000000000000000000000000000000000000000000000000081565b6103fb7f000000000000000000000000000000000000000000000000000000000000000081565b6004546104f990610100900464ffffffffff1681565b610461600a5481565b6103de611110565b6103de6107d4366004612635565b611157565b6104616107e7366004612675565b600860209081526000928352604080842090915290825290205481565b6103de610812366004612520565b6112a5565b6103bb7f000000000000000000000000000000000000000000000000000000000000000081565b601554610861906001600160701b03811690600160701b900464ffffffffff1682565b604080516001600160701b03909316835264ffffffffff909116602083015201610377565b6103de610894366004612520565b611320565b6103de6108a7366004612520565b61136c565b610461600b5481565b6001546103fb906001600160a01b031681565b6009546103bb9060ff1681565b600580546108e2906126a8565b80601f016020809104026020016040519081016040528092919081815260200182805461090e906126a8565b801561095b5780601f106109305761010080835404028352916020019161095b565b820191906000526020600020905b81548152906001019060200180831161093e57829003601f168201915b505050505081565b6000806000807f00000000000000000000000000000000000000000000000000000000000000006001600160a01b0316630902f1ac6040518163ffffffff1660e01b8152600401606060405180830381865afa1580156109c7573d6000803e3d6000fd5b505050506040513d601f19601f820116820180604052508101906109eb91906126f9565b50915091507f000000000000000000000000000000000000000000000000000000000000000015610a1f5790939092509050565b939092509050565b3360008181526008602090815260408083206001600160a01b038716808552925280832085905551919290917f8c5be1e5ebec7d5bd14f71427d1e84f3dd0314c0f7b2291e5b200ac8c7c3b92590610a829086815260200190565b60405180910390a35060015b92915050565b6002546001600160a01b03163314610ad85760405162461bcd60e51b8152602060048201526002602482015261216f60f01b60448201526064015b60405180910390fd5b306001600160a01b03831603610b185760405162461bcd60e51b8152602060048201526005602482015264217468697360d81b6044820152606401610acf565b60405163a9059cbb60e01b8152336004820152602481018290526001600160a01b0383169063a9059cbb906044016020604051808303816000875af1158015610b65573d6000803e3d6000fd5b505050506040513d601f19601f82011682018060405250810190610b89919061273e565b505050565b6000546001600160a01b03163314610bb85760405162461bcd60e51b8152600401610acf9061275b565b610bc06113e1565b565b6001600160a01b03831660009081526008602090815260408083203384529091528120546000198114610c1e57610bf98382612791565b6001600160a01b03861660009081526008602090815260408083203384529091529020555b610c29858585611461565b506001949350505050565b6000546001600160a01b03163314610c5e5760405162461bcd60e51b8152600401610acf9061275b565b6001600160a01b038116600081815260036020908152604091829020805460ff1916600117905590519182527ff1d6512ec7550bf605a5a38910e48fb6a57938ed74a5afa01753fa023001005c91015b60405180910390a150565b6000546001600160a01b03163314610ce35760405162461bcd60e51b8152600401610acf9061275b565b8060005b81811015610d4c57600160036000868685818110610d0757610d076127a4565b9050602002016020810190610d1c9190612520565b6001600160a01b031681526020810191909152604001600020805460ff1916911515919091179055600101610ce7565b50505050565b6001600160a01b03811660009081526011602052604081205460ff1615610d7b57506001919050565b506000919050565b919050565b6000546001600160a01b03163314610db25760405162461bcd60e51b8152600401610acf9061275b565b600f80546001600160a01b0319166001600160a01b038316179055610dd681610c34565b50565b6000546001600160a01b03163314610e035760405162461bcd60e51b8152600401610acf9061275b565b60c98210610e1057600080fd5b60005b82811015610d4c578160116000868685818110610e3257610e326127a4565b9050602002016020810190610e479190612520565b6001600160a01b031681526020810191909152604001600020805460ff1916911515919091179055610e78816127ba565b9050610e13565b6000546001600160a01b03163314610ea95760405162461bcd60e51b8152600401610acf9061275b565b601055565b6000546001600160a01b03163314610ed85760405162461bcd60e51b8152600401610acf9061275b565b6009805464ffffffffff9092166101000265ffffffffff0019909216919091179055565b6001546001600160a01b03163314610f3f5760405162461bcd60e51b815260206004820152600660248201526510b0b236b4b760d11b6044820152606401610acf565b600180546001600160a01b0319166001600160a01b03831690811790915560405133907ff8ccb027dfcd135e000e9d45e6cc2d662578a8825d4c45b5e32e0adf67e79ec690600090a350565b601554610fa890600160701b900464ffffffffff16610e106127d3565b64ffffffffff164210610bc0576015805464ffffffffff60701b1916600160701b4264ffffffffff16021790556000610fdf610963565b50601580546001600160701b0319166001600160701b039290921691909117905550565b6000546001600160a01b0316331461102d5760405162461bcd60e51b8152600401610acf9061275b565b600d80546001600160a01b0319166001600160a01b038316179055610dd681610c34565b6000546001600160a01b0316331461107b5760405162461bcd60e51b8152600401610acf9061275b565b601480546001600160a01b0319166001600160a01b038316179055610dd681610c34565b6000546001600160a01b031633146110c95760405162461bcd60e51b8152600401610acf9061275b565b600e80546001600160a01b0319166001600160a01b038316179055610dd681610c34565b600680546108e2906126a8565b6000611107338484611461565b50600192915050565b6000546001600160a01b0316331461113a5760405162461bcd60e51b8152600401610acf9061275b565b6009805460ff1916600117905561114f611b43565b610bc0610f8b565b6014546001600160a01b031633146111995760405162461bcd60e51b81526020600482015260056024820152646379636c6560d81b6044820152606401610acf565b6001600160a01b037f0000000000000000000000000000000000000000000000000000000000000000166000908152600760205260408120546111de9060039061280e565b90506000818310156111f057826111f2565b815b60145490915061122d907f0000000000000000000000000000000000000000000000000000000000000000906001600160a01b031683611bb0565b7f00000000000000000000000000000000000000000000000000000000000000006001600160a01b031663fff6cae96040518163ffffffff1660e01b8152600401600060405180830381600087803b15801561128857600080fd5b505af115801561129c573d6000803e3d6000fd5b50505050505050565b6000546001600160a01b031633146112cf5760405162461bcd60e51b8152600401610acf9061275b565b6001600160a01b038116600081815260036020908152604091829020805460ff1916905590519182527f976ff2b01cb494434f270c12da5e45ac90c699b50c2312e2bb2fead2466aa4fe9101610cae565b6002546001600160a01b0316331461134a5760405162461bcd60e51b8152600401610acf9061275b565b600280546001600160a01b0319166001600160a01b0392909216919091179055565b6000546001600160a01b031633146113965760405162461bcd60e51b8152600401610acf9061275b565b600080546001600160a01b0319166001600160a01b0383169081178255604051909133917f8be0079c531659141344cd1fd0a4f28419497f9722a3daafe3b4186f6b6457e09190a350565b6004805460ff19166001179055600a541561141557600a54600e5461140f91906001600160a01b0316611c40565b6000600a555b600b541561143c57600b54600f5461143691906001600160a01b0316611c40565b6000600b555b600c54156114555761144f600c54611d48565b6000600c555b6004805460ff19169055565b61146a83610d52565b156114a95760405162461bcd60e51b815260206004820152600f60248201526e697352657761726420213d2030202160881b6044820152606401610acf565b60045460ff16806114d257506001600160a01b03831660009081526003602052604090205460ff165b806114f557506001600160a01b03821660009081526003602052604090205460ff165b1561150557610b89838383611bb0565b813b15806115445750816001600160a01b03167f00000000000000000000000000000000000000000000000000000000000000006001600160a01b0316145b61157b5760405162461bcd60e51b815260206004820152600860248201526718dbdb9d1c9858dd60c21b6044820152606401610acf565b826001600160a01b03167f00000000000000000000000000000000000000000000000000000000000000006001600160a01b0316036117775760095460ff166115ec5760405162461bcd60e51b815260206004820152600360248201526270726560e81b6044820152606401610acf565b6000806115f7610963565b91509150600a816001600160701b031681611614576116146127f8565b046001600160701b031683111561165b5760405162461bcd60e51b815260206004820152600b60248201526a6d6178206361702062757960a81b6044820152606401610acf565b61166482611fb8565b600061168384846001600160701b0316846001600160701b0316612029565b6001600160a01b0386166000908152601260209081526040808320805485019055601382528220805464ffffffffff19164264ffffffffff1617905561dead8252600790527fb0c2646e02af70b79e3fe9277b98373379f54150e4e26b2b5650139f7a75a65d549192509069d3c21bcecceda1000000811015611740576103e860198702049150818169d3c21bcecceda1000000031161172f578069d3c21bcecceda100000003611731565b815b91506117408861dead84611bb0565b600c80546103e8601989020490810190915561175d893083611bb0565b61176c898983868b0303611bb0565b505050505050505050565b816001600160a01b03167f00000000000000000000000000000000000000000000000000000000000000006001600160a01b031603611b385760095460ff166117e85760405162461bcd60e51b815260206004820152600360248201526270726560e81b6044820152606401610acf565b6009546001600160a01b03841660009081526013602052604090205461181d9164ffffffffff610100909104811691166127d3565b64ffffffffff1642101561185c5760405162461bcd60e51b8152600401610acf9060208082526004908201526318dbdb1960e21b604082015260600190565b600080611867610963565b9092509050611877600a82612822565b6001600160701b03168311156118be5760405162461bcd60e51b815260206004820152600c60248201526b1b585e0818d85c081cd95b1b60a21b6044820152606401610acf565b60006103e86118cb61207d565b6118d59086612848565b6118df919061280e565b905060006103e86118f1866014612848565b6118fb919061280e565b905060006119308261190d8589612791565b6119179190612791565b856001600160701b0316876001600160701b03166120c4565b905061193b85611fb8565b6001600160a01b038816600090815260126020526040812054821161197e576001600160a01b038916600090815260126020526040902080548390039055611a74565b6001600160a01b038916600090815260126020526040902054158015906119bc57506001600160a01b03891660009081526012602052604090205482115b15611a41576001600160a01b0389166000908152601260205260408120546119e49084612791565b90506000611a0582896001600160701b0316896001600160701b03166120c4565b9050600a611a14826003612848565b611a1e919061280e565b6001600160a01b038c166000908152601260205260408120559250611a74915050565b600a611a4e886003612848565b611a58919061280e565b6001600160a01b038a1660009081526012602052604081205590505b8015611a9c57611a85893083611bb0565b611a8e81612113565b15611a9c57611a9c81612139565b611ac1600b54600a54600c54611ab2919061285f565b611abc919061285f565b612351565b15611ace57611ace6113e1565b611ae28930611add868861285f565b611bb0565b83600a6000828254611af4919061285f565b9250508190555082600b6000828254611b0d919061285f565b9091555061176c905089898587611b24868d612791565b611b2e9190612791565b611add9190612791565b610b89838383611bb0565b600454610100900464ffffffffff1615611b925760405162461bcd60e51b815260206004820152601060248201526f105b1c9958591e481b185d5b98da195960821b6044820152606401610acf565b6004805465ffffffffff0019166101004264ffffffffff1602179055565b6001600160a01b03831660009081526007602052604081208054839290611bd8908490612791565b90915550506001600160a01b03808316600081815260076020526040908190208054850190555190918516907fddf252ad1be2c89b69c2b068fc378daa952ba7f163c4a11628f55a4df523b3ef90611c339085815260200190565b60405180910390a3505050565b6040805160028082526060820183526000926020830190803683370190505090503081600081518110611c7557611c756127a4565b60200260200101906001600160a01b031690816001600160a01b0316815250507f000000000000000000000000000000000000000000000000000000000000000081600181518110611cc957611cc96127a4565b6001600160a01b039283166020918202929092010152604051635c11d79560e01b81527f000000000000000000000000000000000000000000000000000000000000000090911690635c11d79590611d2e908690600090869088904290600401612872565b600060405180830381600087803b15801561128857600080fd5b7f00000000000000000000000000000000000000000000000000000000000000006000611d7660028461280e565b90506000611d848285612791565b6040516370a0823160e01b81523060048201529091506000906001600160a01b038516906370a0823190602401602060405180830381865afa158015611dce573d6000803e3d6000fd5b505050506040513d601f19601f82011682018060405250810190611df291906128e3565b9050611e1e837f0000000000000000000000000000000000000000000000000000000000000000611c40565b6040516370a0823160e01b81527f00000000000000000000000000000000000000000000000000000000000000006001600160a01b0381811660048401528616916323b872dd9190309084906370a0823190602401602060405180830381865afa158015611e90573d6000803e3d6000fd5b505050506040513d601f19601f82011682018060405250810190611eb491906128e3565b6040516001600160e01b031960e086901b1681526001600160a01b03938416600482015292909116602483015260448201526064016020604051808303816000875af1158015611f08573d6000803e3d6000fd5b505050506040513d601f19601f82011682018060405250810190611f2c919061273e565b506040516370a0823160e01b815230600482015260009082906001600160a01b038716906370a0823190602401602060405180830381865afa158015611f76573d6000803e3d6000fd5b505050506040513d601f19601f82011682018060405250810190611f9a91906128e3565b611fa49190612791565b9050611fb08382612372565b505050505050565b601554611fd590600160701b900464ffffffffff16610e106127d3565b64ffffffffff164210610dd6576015805472ffffffffffffffffffffffffffffffffffffff1916600160701b4264ffffffffff16026001600160701b031916176001600160701b0392909216919091179055565b6000806120368585612848565b61204290612710612848565b905060006120508685612791565b61205c906126f7612848565b9050612068818361280e565b61207390600161285f565b9695505050505050565b600454601e90610100900464ffffffffff16158015906120b85750600454610384906120b590610100900464ffffffffff1642612791565b11155b156120c1575060505b90565b6000806120d3856126f7612848565b905060006120e18483612848565b90506000826120f287612710612848565b6120fc919061285f565b9050612108818361280e565b979650505050505050565b6000633b9aca00821015801561212c575060045460ff16155b15610d7b57506001919050565b6004805460ff19166001179055600b54600a54600c54306000908152600760205260408120549093929161216c91612791565b6121769190612791565b6121809190612791565b9050600061218f836002612848565b90506000828210156121a157816121a3565b825b90506121cf817f0000000000000000000000000000000000000000000000000000000000000000611c40565b6040516370a0823160e01b81526001600160a01b037f0000000000000000000000000000000000000000000000000000000000000000811660048301526000917f0000000000000000000000000000000000000000000000000000000000000000909116906370a0823190602401602060405180830381865afa15801561225a573d6000803e3d6000fd5b505050506040513d601f19601f8201168201806040525081019061227e91906128e3565b600d546040516323b872dd60e01b81526001600160a01b037f0000000000000000000000000000000000000000000000000000000000000000811660048301529182166024820152604481018390529192507f000000000000000000000000000000000000000000000000000000000000000016906323b872dd906064016020604051808303816000875af115801561231b573d6000803e3d6000fd5b505050506040513d601f19601f8201168201806040525081019061233f919061273e565b50506004805460ff1916905550505050565b6000601054821015801561212c575060045460ff16610d7b57506001919050565b60405162e8e33760e81b81523060048201526001600160a01b037f000000000000000000000000000000000000000000000000000000000000000081166024830152604482018490526064820183905260006084830181905260a483015261dead60c48301524260e48301527f0000000000000000000000000000000000000000000000000000000000000000169063e8e3370090610104016060604051808303816000875af115801561242a573d6000803e3d6000fd5b505050506040513d601f19601f8201168201806040525081019061244e91906128fc565b5050505050565b600060208083528351808285015260005b8181101561248257858101830151858201604001528201612466565b506000604082860101526040601f19601f8301168501019250505092915050565b80356001600160a01b0381168114610d8357600080fd5b600080604083850312156124cd57600080fd5b6124d6836124a3565b946020939093013593505050565b6000806000606084860312156124f957600080fd5b612502846124a3565b9250612510602085016124a3565b9150604084013590509250925092565b60006020828403121561253257600080fd5b61253b826124a3565b9392505050565b60008083601f84011261255457600080fd5b50813567ffffffffffffffff81111561256c57600080fd5b6020830191508360208260051b850101111561258757600080fd5b9250929050565b600080602083850312156125a157600080fd5b823567ffffffffffffffff8111156125b857600080fd5b6125c485828601612542565b90969095509350505050565b8015158114610dd657600080fd5b6000806000604084860312156125f357600080fd5b833567ffffffffffffffff81111561260a57600080fd5b61261686828701612542565b909450925050602084013561262a816125d0565b809150509250925092565b60006020828403121561264757600080fd5b5035919050565b60006020828403121561266057600080fd5b813564ffffffffff8116811461253b57600080fd5b6000806040838503121561268857600080fd5b612691836124a3565b915061269f602084016124a3565b90509250929050565b600181811c908216806126bc57607f821691505b6020821081036126dc57634e487b7160e01b600052602260045260246000fd5b50919050565b80516001600160701b0381168114610d8357600080fd5b60008060006060848603121561270e57600080fd5b612717846126e2565b9250612725602085016126e2565b9150604084015163ffffffff8116811461262a57600080fd5b60006020828403121561275057600080fd5b815161253b816125d0565b60208082526006908201526510b7bbb732b960d11b604082015260600190565b634e487b7160e01b600052601160045260246000fd5b81810381811115610a8e57610a8e61277b565b634e487b7160e01b600052603260045260246000fd5b6000600182016127cc576127cc61277b565b5060010190565b64ffffffffff8181168382160190808211156127f1576127f161277b565b5092915050565b634e487b7160e01b600052601260045260246000fd5b60008261281d5761281d6127f8565b500490565b60006001600160701b038084168061283c5761283c6127f8565b92169190910492915050565b8082028115828204841417610a8e57610a8e61277b565b80820180821115610a8e57610a8e61277b565b600060a082018783526020878185015260a0604085015281875180845260c086019150828901935060005b818110156128c25784516001600160a01b03168352938301939183019160010161289d565b50506001600160a01b03969096166060850152505050608001529392505050565b6000602082840312156128f557600080fd5b5051919050565b60008060006060848603121561291157600080fd5b835192506020840151915060408401519050925092509256fea264697066735822122091755b20cd0eae73ac0da23505c2aa77ce4199b2966e4443c2c0447b212d261b64736f6c63430008140033608060405234801561001057600080fd5b5060405161014738038061014783398101604081905261002f916100a8565b60405163095ea7b360e01b815233600482015260001960248201526001600160a01b0382169063095ea7b3906044016020604051808303816000875af115801561007d573d6000803e3d6000fd5b505050506040513d601f19601f820116820180604052508101906100a191906100d8565b50506100fa565b6000602082840312156100ba57600080fd5b81516001600160a01b03811681146100d157600080fd5b9392505050565b6000602082840312156100ea57600080fd5b815180151581146100d157600080fd5b603f806101086000396000f3fe6080604052600080fdfea2646970667358221220ac5ed0267a337be473c126a330d2a1e4efa20acdf53e28750ea9a1058470844564736f6c63430008140033",
  "devdoc": {
    "kind": "dev",
    "methods": {},
    "version": 1
  },
  "userdoc": {
    "kind": "user",
    "methods": {},
    "version": 1
  },
  "storageLayout": {
    "storage": [
      {
        "astId": 11710,
        "contract": "contracts/Ava.sol:AVA",
        "label": "owner",
        "offset": 0,
        "slot": "0",
        "type": "t_address"
      },
      {
        "astId": 11712,
        "contract": "contracts/Ava.sol:AVA",
        "label": "admin",
        "offset": 0,
        "slot": "1",
        "type": "t_address"
      },
      {
        "astId": 11714,
        "contract": "contracts/Ava.sol:AVA",
        "label": "abandonedBalanceOwner",
        "offset": 0,
        "slot": "2",
        "type": "t_address"
      },
      {
        "astId": 11574,
        "contract": "contracts/Ava.sol:AVA",
        "label": "_isExcludedFromFee",
        "offset": 0,
        "slot": "3",
        "type": "t_mapping(t_address,t_bool)"
      },
      {
        "astId": 12038,
        "contract": "contracts/Ava.sol:AVA",
        "label": "inSwapAndLiquify",
        "offset": 0,
        "slot": "4",
        "type": "t_bool"
      },
      {
        "astId": 11673,
        "contract": "contracts/Ava.sol:AVA",
        "label": "launchedAtTimestamp",
        "offset": 1,
        "slot": "4",
        "type": "t_uint40"
      },
      {
        "astId": 12164,
        "contract": "contracts/Ava.sol:AVA",
        "label": "name",
        "offset": 0,
        "slot": "5",
        "type": "t_string_storage"
      },
      {
        "astId": 12166,
        "contract": "contracts/Ava.sol:AVA",
        "label": "symbol",
        "offset": 0,
        "slot": "6",
        "type": "t_string_storage"
      },
      {
        "astId": 12174,
        "contract": "contracts/Ava.sol:AVA",
        "label": "balanceOf",
        "offset": 0,
        "slot": "7",
        "type": "t_mapping(t_address,t_uint256)"
      },
      {
        "astId": 12180,
        "contract": "contracts/Ava.sol:AVA",
        "label": "allowance",
        "offset": 0,
        "slot": "8",
        "type": "t_mapping(t_address,t_mapping(t_address,t_uint256))"
      },
      {
        "astId": 7699,
        "contract": "contracts/Ava.sol:AVA",
        "label": "presale",
        "offset": 0,
        "slot": "9",
        "type": "t_bool"
      },
      {
        "astId": 7702,
        "contract": "contracts/Ava.sol:AVA",
        "label": "coldTime",
        "offset": 1,
        "slot": "9",
        "type": "t_uint40"
      },
      {
        "astId": 7704,
        "contract": "contracts/Ava.sol:AVA",
        "label": "AmountMarketingFee",
        "offset": 0,
        "slot": "10",
        "type": "t_uint256"
      },
      {
        "astId": 7706,
        "contract": "contracts/Ava.sol:AVA",
        "label": "TechnologyFee",
        "offset": 0,
        "slot": "11",
        "type": "t_uint256"
      },
      {
        "astId": 7708,
        "contract": "contracts/Ava.sol:AVA",
        "label": "AmountLPFee",
        "offset": 0,
        "slot": "12",
        "type": "t_uint256"
      },
      {
        "astId": 7710,
        "contract": "contracts/Ava.sol:AVA",
        "label": "profitAddress",
        "offset": 0,
        "slot": "13",
        "type": "t_address"
      },
      {
        "astId": 7712,
        "contract": "contracts/Ava.sol:AVA",
        "label": "marketingAddress",
        "offset": 0,
        "slot": "14",
        "type": "t_address"
      },
      {
        "astId": 7714,
        "contract": "contracts/Ava.sol:AVA",
        "label": "technologyAddress",
        "offset": 0,
        "slot": "15",
        "type": "t_address"
      },
      {
        "astId": 7717,
        "contract": "contracts/Ava.sol:AVA",
        "label": "swapAtAmount",
        "offset": 0,
        "slot": "16",
        "type": "t_uint256"
      },
      {
        "astId": 7721,
        "contract": "contracts/Ava.sol:AVA",
        "label": "_bcList",
        "offset": 0,
        "slot": "17",
        "type": "t_mapping(t_address,t_bool)"
      },
      {
        "astId": 7725,
        "contract": "contracts/Ava.sol:AVA",
        "label": "tOwnedU",
        "offset": 0,
        "slot": "18",
        "type": "t_mapping(t_address,t_uint256)"
      },
      {
        "astId": 7729,
        "contract": "contracts/Ava.sol:AVA",
        "label": "lastBuyTime",
        "offset": 0,
        "slot": "19",
        "type": "t_mapping(t_address,t_uint40)"
      },
      {
        "astId": 7731,
        "contract": "contracts/Ava.sol:AVA",
        "label": "STAKING",
        "offset": 0,
        "slot": "20",
        "type": "t_address"
      },
      {
        "astId": 7739,
        "contract": "contracts/Ava.sol:AVA",
        "label": "poolStatus",
        "offset": 0,
        "slot": "21",
        "type": "t_struct(POOLUStatus)7736_storage"
      }
    ],
    "types": {
      "t_address": {
        "encoding": "inplace",
        "label": "address",
        "numberOfBytes": "20"
      },
      "t_bool": {
        "encoding": "inplace",
        "label": "bool",
        "numberOfBytes": "1"
      },
      "t_mapping(t_address,t_bool)": {
        "encoding": "mapping",
        "key": "t_address",
        "label": "mapping(address => bool)",
        "numberOfBytes": "32",
        "value": "t_bool"
      },
      "t_mapping(t_address,t_mapping(t_address,t_uint256))": {
        "encoding": "mapping",
        "key": "t_address",
        "label": "mapping(address => mapping(address => uint256))",
        "numberOfBytes": "32",
        "value": "t_mapping(t_address,t_uint256)"
      },
      "t_mapping(t_address,t_uint256)": {
        "encoding": "mapping",
        "key": "t_address",
        "label": "mapping(address => uint256)",
        "numberOfBytes": "32",
        "value": "t_uint256"
      },
      "t_mapping(t_address,t_uint40)": {
        "encoding": "mapping",
        "key": "t_address",
        "label": "mapping(address => uint40)",
        "numberOfBytes": "32",
        "value": "t_uint40"
      },
      "t_string_storage": {
        "encoding": "bytes",
        "label": "string",
        "numberOfBytes": "32"
      },
      "t_struct(POOLUStatus)7736_storage": {
        "encoding": "inplace",
        "label": "struct AVA.POOLUStatus",
        "members": [
          {
            "astId": 7733,
            "contract": "contracts/Ava.sol:AVA",
            "label": "bal",
            "offset": 0,
            "slot": "0",
            "type": "t_uint112"
          },
          {
            "astId": 7735,
            "contract": "contracts/Ava.sol:AVA",
            "label": "t",
            "offset": 14,
            "slot": "0",
            "type": "t_uint40"
          }
        ],
        "numberOfBytes": "32"
      },
      "t_uint112": {
        "encoding": "inplace",
        "label": "uint112",
        "numberOfBytes": "14"
      },
      "t_uint256": {
        "encoding": "inplace",
        "label": "uint256",
        "numberOfBytes": "32"
      },
      "t_uint40": {
        "encoding": "inplace",
        "label": "uint40",
        "numberOfBytes": "5"
      }
    }
  }
}