{
  "address": "0xcD95959810b20dbc13A13D867d3156f7b94858dB",
  "abi": [
    {
      "inputs": [
        {
          "internalType": "address",
          "name": "_staking",
          "type": "address"
        },
        {
          "internalType": "address",
          "name": "profitAddress_",
          "type": "address"
        },
        {
          "internalType": "address",
          "name": "marketingAddress_",
          "type": "address"
        },
        {
          "internalType": "address",
          "name": "technologyAddress_",
          "type": "address"
        },
        {
          "internalType": "address",
          "name": "USDT_",
          "type": "address"
        },
        {
          "internalType": "address",
          "name": "ROUTER_",
          "type": "address"
        }
      ],
      "stateMutability": "nonpayable",
      "type": "constructor"
    },
    {
      "anonymous": false,
      "inputs": [
        {
          "indexed": true,
          "internalType": "address",
          "name": "owner",
          "type": "address"
        },
        {
          "indexed": true,
          "internalType": "address",
          "name": "spender",
          "type": "address"
        },
        {
          "indexed": false,
          "internalType": "uint256",
          "name": "amount",
          "type": "uint256"
        }
      ],
      "name": "Approval",
      "type": "event"
    },
    {
      "anonymous": false,
      "inputs": [
        {
          "indexed": false,
          "internalType": "address",
          "name": "account",
          "type": "address"
        }
      ],
      "name": "ExcludedFromFee",
      "type": "event"
    },
    {
      "anonymous": false,
      "inputs": [
        {
          "indexed": false,
          "internalType": "address",
          "name": "account",
          "type": "address"
        }
      ],
      "name": "IncludedToFee",
      "type": "event"
    },
    {
      "anonymous": false,
      "inputs": [
        {
          "indexed": true,
          "internalType": "address",
          "name": "user",
          "type": "address"
        },
        {
          "indexed": true,
          "internalType": "address",
          "name": "newOwner",
          "type": "address"
        }
      ],
      "name": "OwnershipTransferred",
      "type": "event"
    },
    {
      "anonymous": false,
      "inputs": [
        {
          "indexed": true,
          "internalType": "address",
          "name": "from",
          "type": "address"
        },
        {
          "indexed": true,
          "internalType": "address",
          "name": "to",
          "type": "address"
        },
        {
          "indexed": false,
          "internalType": "uint256",
          "name": "amount",
          "type": "uint256"
        }
      ],
      "name": "Transfer",
      "type": "event"
    },
    {
      "inputs": [],
      "name": "AmountLPFee",
      "outputs": [
        {
          "internalType": "uint256",
          "name": "",
          "type": "uint256"
        }
      ],
      "stateMutability": "view",
      "type": "function"
    },
    {
      "inputs": [],
      "name": "AmountMarketingFee",
      "outputs": [
        {
          "internalType": "uint256",
          "name": "",
          "type": "uint256"
        }
      ],
      "stateMutability": "view",
      "type": "function"
    },
    {
      "inputs": [],
      "name": "STAKING",
      "outputs": [
        {
          "internalType": "address",
          "name": "",
          "type": "address"
        }
      ],
      "stateMutability": "view",
      "type": "function"
    },
    {
      "inputs": [],
      "name": "TechnologyFee",
      "outputs": [
        {
          "internalType": "uint256",
          "name": "",
          "type": "uint256"
        }
      ],
      "stateMutability": "view",
      "type": "function"
    },
    {
      "inputs": [],
      "name": "USDT",
      "outputs": [
        {
          "internalType": "address",
          "name": "",
          "type": "address"
        }
      ],
      "stateMutability": "view",
      "type": "function"
    },
    {
      "inputs": [
        {
          "internalType": "address",
          "name": "",
          "type": "address"
        }
      ],
      "name": "_bcList",
      "outputs": [
        {
          "internalType": "bool",
          "name": "",
          "type": "bool"
        }
      ],
      "stateMutability": "view",
      "type": "function"
    },
    {
      "inputs": [],
      "name": "abandonedBalanceOwner",
      "outputs": [
        {
          "internalType": "address",
          "name": "",
          "type": "address"
        }
      ],
      "stateMutability": "view",
      "type": "function"
    },
    {
      "inputs": [
        {
          "internalType": "address",
          "name": "",
          "type": "address"
        },
        {
          "internalType": "address",
          "name": "",
          "type": "address"
        }
      ],
      "name": "allowance",
      "outputs": [
        {
          "internalType": "uint256",
          "name": "",
          "type": "uint256"
        }
      ],
      "stateMutability": "view",
      "type": "function"
    },
    {
      "inputs": [
        {
          "internalType": "address",
          "name": "spender",
          "type": "address"
        },
        {
          "internalType": "uint256",
          "name": "amount",
          "type": "uint256"
        }
      ],
      "name": "approve",
      "outputs": [
        {
          "internalType": "bool",
          "name": "",
          "type": "bool"
        }
      ],
      "stateMutability": "nonpayable",
      "type": "function"
    },
    {
      "inputs": [
        {
          "internalType": "address",
          "name": "",
          "type": "address"
        }
      ],
      "name": "balanceOf",
      "outputs": [
        {
          "internalType": "uint256",
          "name": "",
          "type": "uint256"
        }
      ],
      "stateMutability": "view",
      "type": "function"
    },
    {
      "inputs": [
        {
          "internalType": "address",
          "name": "token",
          "type": "address"
        },
        {
          "internalType": "uint256",
          "name": "amount",
          "type": "uint256"
        }
      ],
      "name": "claimAbandonedBalance",
      "outputs": [],
      "stateMutability": "nonpayable",
      "type": "function"
    },
    {
      "inputs": [],
      "name": "coldTime",
      "outputs": [
        {
          "internalType": "uint40",
          "name": "",
          "type": "uint40"
        }
      ],
      "stateMutability": "view",
      "type": "function"
    },
    {
      "inputs": [],
      "name": "decimals",
      "outputs": [
        {
          "internalType": "uint8",
          "name": "",
          "type": "uint8"
        }
      ],
      "stateMutability": "view",
      "type": "function"
    },
    {
      "inputs": [],
      "name": "distributor",
      "outputs": [
        {
          "internalType": "contract Distributor",
          "name": "",
          "type": "address"
        }
      ],
      "stateMutability": "view",
      "type": "function"
    },
    {
      "inputs": [
        {
          "internalType": "address",
          "name": "account",
          "type": "address"
        }
      ],
      "name": "excludeFromFee",
      "outputs": [],
      "stateMutability": "nonpayable",
      "type": "function"
    },
    {
      "inputs": [
        {
          "internalType": "address[]",
          "name": "accounts",
          "type": "address[]"
        }
      ],
      "name": "excludeMultipleAccountsFromFee",
      "outputs": [],
      "stateMutability": "nonpayable",
      "type": "function"
    },
    {
      "inputs": [],
      "name": "getReserveU",
      "outputs": [
        {
          "internalType": "uint112",
          "name": "",
          "type": "uint112"
        }
      ],
      "stateMutability": "view",
      "type": "function"
    },
    {
      "inputs": [],
      "name": "getReserves",
      "outputs": [
        {
          "internalType": "uint112",
          "name": "",
          "type": "uint112"
        },
        {
          "internalType": "uint112",
          "name": "",
          "type": "uint112"
        }
      ],
      "stateMutability": "view",
      "type": "function"
    },
    {
      "inputs": [],
      "name": "inSwapAndLiquify",
      "outputs": [
        {
          "internalType": "bool",
          "name": "",
          "type": "bool"
        }
      ],
      "stateMutability": "view",
      "type": "function"
    },
    {
      "inputs": [
        {
          "internalType": "address",
          "name": "account",
          "type": "address"
        }
      ],
      "name": "includeInFee",
      "outputs": [],
      "stateMutability": "nonpayable",
      "type": "function"
    },
    {
      "inputs": [
        {
          "internalType": "address",
          "name": "account",
          "type": "address"
        }
      ],
      "name": "isExcludedFromFee",
      "outputs": [
        {
          "internalType": "bool",
          "name": "",
          "type": "bool"
        }
      ],
      "stateMutability": "view",
      "type": "function"
    },
    {
      "inputs": [],
      "name": "isFirstReserveU",
      "outputs": [
        {
          "internalType": "bool",
          "name": "",
          "type": "bool"
        }
      ],
      "stateMutability": "view",
      "type": "function"
    },
    {
      "inputs": [
        {
          "internalType": "address",
          "name": "account",
          "type": "address"
        }
      ],
      "name": "isReward",
      "outputs": [
        {
          "internalType": "uint256",
          "name": "",
          "type": "uint256"
        }
      ],
      "stateMutability": "view",
      "type": "function"
    },
    {
      "inputs": [
        {
          "internalType": "address",
          "name": "",
          "type": "address"
        }
      ],
      "name": "lastBuyTime",
      "outputs": [
        {
          "internalType": "uint40",
          "name": "",
          "type": "uint40"
        }
      ],
      "stateMutability": "view",
      "type": "function"
    },
    {
      "inputs": [],
      "name": "launchedAtTimestamp",
      "outputs": [
        {
          "internalType": "uint40",
          "name": "",
          "type": "uint40"
        }
      ],
      "stateMutability": "view",
      "type": "function"
    },
    {
      "inputs": [],
      "name": "marketingAddress",
      "outputs": [
        {
          "internalType": "address",
          "name": "",
          "type": "address"
        }
      ],
      "stateMutability": "view",
      "type": "function"
    },
    {
      "inputs": [
        {
          "internalType": "address[]",
          "name": "addresses",
          "type": "address[]"
        },
        {
          "internalType": "bool",
          "name": "value",
          "type": "bool"
        }
      ],
      "name": "multi_bclist",
      "outputs": [],
      "stateMutability": "nonpayable",
      "type": "function"
    },
    {
      "inputs": [],
      "name": "name",
      "outputs": [
        {
          "internalType": "string",
          "name": "",
          "type": "string"
        }
      ],
      "stateMutability": "view",
      "type": "function"
    },
    {
      "inputs": [],
      "name": "owner",
      "outputs": [
        {
          "internalType": "address",
          "name": "",
          "type": "address"
        }
      ],
      "stateMutability": "view",
      "type": "function"
    },
    {
      "inputs": [],
      "name": "poolStatus",
      "outputs": [
        {
          "internalType": "uint112",
          "name": "bal",
          "type": "uint112"
        },
        {
          "internalType": "uint40",
          "name": "t",
          "type": "uint40"
        }
      ],
      "stateMutability": "view",
      "type": "function"
    },
    {
      "inputs": [],
      "name": "presale",
      "outputs": [
        {
          "internalType": "bool",
          "name": "",
          "type": "bool"
        }
      ],
      "stateMutability": "view",
      "type": "function"
    },
    {
      "inputs": [],
      "name": "profitAddress",
      "outputs": [
        {
          "internalType": "address",
          "name": "",
          "type": "address"
        }
      ],
      "stateMutability": "view",
      "type": "function"
    },
    {
      "inputs": [
        {
          "internalType": "uint256",
          "name": "amount",
          "type": "uint256"
        }
      ],
      "name": "recycle",
      "outputs": [],
      "stateMutability": "nonpayable",
      "type": "function"
    },
    {
      "inputs": [
        {
          "internalType": "uint40",
          "name": "_coldTime",
          "type": "uint40"
        }
      ],
      "name": "setColdTime",
      "outputs": [],
      "stateMutability": "nonpayable",
      "type": "function"
    },
    {
      "inputs": [
        {
          "internalType": "address",
          "name": "addr",
          "type": "address"
        }
      ],
      "name": "setMarketingAddress",
      "outputs": [],
      "stateMutability": "nonpayable",
      "type": "function"
    },
    {
      "inputs": [],
      "name": "setPresale",
      "outputs": [],
      "stateMutability": "nonpayable",
      "type": "function"
    },
    {
      "inputs": [
        {
          "internalType": "address",
          "name": "addr",
          "type": "address"
        }
      ],
      "name": "setProfitAddress",
      "outputs": [],
      "stateMutability": "nonpayable",
      "type": "function"
    },
    {
      "inputs": [
        {
          "internalType": "address",
          "name": "addr",
          "type": "address"
        }
      ],
      "name": "setStaking",
      "outputs": [],
      "stateMutability": "nonpayable",
      "type": "function"
    },
    {
      "inputs": [
        {
          "internalType": "uint256",
          "name": "newValue",
          "type": "uint256"
        }
      ],
      "name": "setSwapAtAmount",
      "outputs": [],
      "stateMutability": "nonpayable",
      "type": "function"
    },
    {
      "inputs": [
        {
          "internalType": "address",
          "name": "addr",
          "type": "address"
        }
      ],
      "name": "setTechnologyAddress",
      "outputs": [],
      "stateMutability": "nonpayable",
      "type": "function"
    },
    {
      "inputs": [],
      "name": "swapAtAmount",
      "outputs": [
        {
          "internalType": "uint256",
          "name": "",
          "type": "uint256"
        }
      ],
      "stateMutability": "view",
      "type": "function"
    },
    {
      "inputs": [],
      "name": "swapTokenForFundByOwner",
      "outputs": [],
      "stateMutability": "nonpayable",
      "type": "function"
    },
    {
      "inputs": [],
      "name": "symbol",
      "outputs": [
        {
          "internalType": "string",
          "name": "",
          "type": "string"
        }
      ],
      "stateMutability": "view",
      "type": "function"
    },
    {
      "inputs": [
        {
          "internalType": "address",
          "name": "",
          "type": "address"
        }
      ],
      "name": "tOwnedU",
      "outputs": [
        {
          "internalType": "uint256",
          "name": "",
          "type": "uint256"
        }
      ],
      "stateMutability": "view",
      "type": "function"
    },
    {
      "inputs": [],
      "name": "technologyAddress",
      "outputs": [
        {
          "internalType": "address",
          "name": "",
          "type": "address"
        }
      ],
      "stateMutability": "view",
      "type": "function"
    },
    {
      "inputs": [],
      "name": "totalSupply",
      "outputs": [
        {
          "internalType": "uint256",
          "name": "",
          "type": "uint256"
        }
      ],
      "stateMutability": "view",
      "type": "function"
    },
    {
      "inputs": [
        {
          "internalType": "address",
          "name": "to",
          "type": "address"
        },
        {
          "internalType": "uint256",
          "name": "amount",
          "type": "uint256"
        }
      ],
      "name": "transfer",
      "outputs": [
        {
          "internalType": "bool",
          "name": "",
          "type": "bool"
        }
      ],
      "stateMutability": "nonpayable",
      "type": "function"
    },
    {
      "inputs": [
        {
          "internalType": "address",
          "name": "from",
          "type": "address"
        },
        {
          "internalType": "address",
          "name": "to",
          "type": "address"
        },
        {
          "internalType": "uint256",
          "name": "amount",
          "type": "uint256"
        }
      ],
      "name": "transferFrom",
      "outputs": [
        {
          "internalType": "bool",
          "name": "",
          "type": "bool"
        }
      ],
      "stateMutability": "nonpayable",
      "type": "function"
    },
    {
      "inputs": [
        {
          "internalType": "address",
          "name": "newOwner",
          "type": "address"
        }
      ],
      "name": "transferOwnership",
      "outputs": [],
      "stateMutability": "nonpayable",
      "type": "function"
    },
    {
      "inputs": [],
      "name": "uniswapV2Pair",
      "outputs": [
        {
          "internalType": "address",
          "name": "",
          "type": "address"
        }
      ],
      "stateMutability": "view",
      "type": "function"
    },
    {
      "inputs": [],
      "name": "uniswapV2Router",
      "outputs": [
        {
          "internalType": "contract IUniswapV2Router02",
          "name": "",
          "type": "address"
        }
      ],
      "stateMutability": "view",
      "type": "function"
    },
    {
      "inputs": [],
      "name": "updatePoolReserve",
      "outputs": [],
      "stateMutability": "nonpayable",
      "type": "function"
    }
  ],
  "transactionHash": "0x4b27970a5f76d5ec894be61b878c0308cd55cf9cc7fbf5e750a42a102f1e95b2",
  "args": [
    "0x7B5820Bc4A61d87FaD4253248D4B2f4ec67E722c",
    "0xc3F73fD48B268146A6F9124e7b08DFCdaDB88062",
    "0x853230168A8a79d3f46fDc657Ce139b8C89C4189",
    "0x69440A1e527F17f32A48772ee164F8b452b89D2C",
    "0xF7c36DdfC878798C0edF726aDB2Fc9795190A270",
    "0x10ED43C718714eb63d5aA57B78B54704E256024E"
  ],
  "numDeployments": 1,
  "solcInputHash": "fa9f6561da256fea9e422e9a4f44bbb2",
  "bytecode": "0x6101606040526008805465ffffffffff001916613c001790556801158e460913d00000600f553480156200003257600080fd5b50604051620031cd380380620031cd833981016040819052620000559162000573565b60408051808201825260038082526241564160e81b60208084018290528451808601865292835282015260008054336001600160a01b0319918216811783556001805490921681179091559351929391926012926a0115673e073a8936c0000092889288929182917f8be0079c531659141344cd1fd0a4f28419497f9722a3daafe3b4186f6b6457e0908290a3506001600160a01b0380831660e052811660808190526040805163c45a015560e01b8152905163c45a0155916004808201926020929091908290030181865afa15801562000134573d6000803e3d6000fd5b505050506040513d601f19601f820116820180604052508101906200015a9190620005f4565b6040516364e329cb60e11b81523060048201526001600160a01b038481166024830152919091169063c9c65396906044016020604051808303816000875af1158015620001ab573d6000803e3d6000fd5b505050506040513d601f19601f82011682018060405250810190620001d19190620005f4565b6001600160a01b031660a0526040518290620001ed9062000548565b6001600160a01b039091168152602001604051809103906000f0801580156200021a573d6000803e3d6000fd5b506001600160a01b031660c0816001600160a01b031681525050816001600160a01b031660a0516001600160a01b0316630dfe16816040518163ffffffff1660e01b8152600401602060405180830381865afa1580156200027f573d6000803e3d6000fd5b505050506040513d601f19601f82011682018060405250810190620002a59190620005f4565b6001600160a01b031614610100525060049050620002c48582620006be565b506005620002d38482620006be565b5060ff821661012052610140819052336000818152600660209081526040808320805486019055518481527fddf252ad1be2c89b69c2b068fc378daa952ba7f163c4a11628f55a4df523b3ef910160405180910390a350503060009081526007602090815260408083206080516001600160a01b03908116808652919093529281902060001990819055905163095ea7b360e01b8152600481019390935260248301528516925063095ea7b391506044016020604051808303816000875af1158015620003a4573d6000803e3d6000fd5b505050506040513d601f19601f82011682018060405250810190620003ca91906200078a565b50601380546001600160a01b038089166001600160a01b031992831617909255600c8054888416908316179055600d8054878416908316179055600e8054928616929091169190911790556200042261dead620004a0565b6200042d33620004a0565b6200043830620004a0565b6013546200044f906001600160a01b0316620004a0565b600c5462000466906001600160a01b0316620004a0565b600d546200047d906001600160a01b0316620004a0565b600e5462000494906001600160a01b0316620004a0565b505050505050620007ae565b6000546001600160a01b03163314620004ee5760405162461bcd60e51b815260206004820152600c60248201526b15539055551213d49256915160a21b604482015260640160405180910390fd5b6001600160a01b038116600081815260026020908152604091829020805460ff1916600117905590519182527ff1d6512ec7550bf605a5a38910e48fb6a57938ed74a5afa01753fa023001005c910160405180910390a150565b610147806200308683390190565b80516001600160a01b03811681146200056e57600080fd5b919050565b60008060008060008060c087890312156200058d57600080fd5b620005988762000556565b9550620005a86020880162000556565b9450620005b86040880162000556565b9350620005c86060880162000556565b9250620005d86080880162000556565b9150620005e860a0880162000556565b90509295509295509295565b6000602082840312156200060757600080fd5b620006128262000556565b9392505050565b634e487b7160e01b600052604160045260246000fd5b600181811c908216806200064457607f821691505b6020821081036200066557634e487b7160e01b600052602260045260246000fd5b50919050565b601f821115620006b957600081815260208120601f850160051c81016020861015620006945750805b601f850160051c820191505b81811015620006b557828155600101620006a0565b5050505b505050565b81516001600160401b03811115620006da57620006da62000619565b620006f281620006eb84546200062f565b846200066b565b602080601f8311600181146200072a5760008415620007115750858301515b600019600386901b1c1916600185901b178555620006b5565b600085815260208120601f198616915b828110156200075b578886015182559484019460019091019084016200073a565b50858210156200077a5787850151600019600388901b60f8161c191681555b5050505050600190811b01905550565b6000602082840312156200079d57600080fd5b815180151581146200061257600080fd5b60805160a05160c05160e0516101005161012051610140516127f16200089560003960006103ee0152600061045e0152600081816107b8015261096801526000818161071901528181611b3001528181611be30152818161209c0152818161215d01526122190152600081816106f201528181611c9301528181611cc601528181612036015281816120710152612123015260008181610510015281816108e1015281816110bc0152818161111701528181611148015281816113c00152818161142d01526116290152600081816103c701528181611b87015261226b01526127f16000f3fe608060405234801561001057600080fd5b506004361061030c5760003560e01c806382cf114c1161019d578063bfe10928116100e9578063dd62ed3e116100a2578063f02286921161007c578063f0228692146107da578063f2fde38b14610822578063f6dcbcbc14610835578063fdea8e0b1461083e57600080fd5b8063dd62ed3e14610775578063ea2f0b37146107a0578063efc4daf1146107b357600080fd5b8063bfe10928146106ed578063c54e44eb14610714578063c6d2577d1461073b578063cfe0e61914610751578063dcc407441461075a578063dd1c35bc1461076257600080fd5b8063906e9dd01161015657806397610f301161013057806397610f3014610691578063a1eef78a146106a4578063a5ece941146106c7578063a9059cbb146106da57600080fd5b8063906e9dd01461066357806394417e231461067657806395d89b411461068957600080fd5b806382cf114c146105ee57806384333ac514610601578063869175241461062157806388a3e9e31461062a5780638da5cb5b1461063d5780638ff390991461065057600080fd5b80633fecc2e21161025c578063511a6539116102155780636402511e116101ef5780636402511e146105a0578063695901fe146105b357806370a08231146105c65780637d28bb47146105e657600080fd5b8063511a6539146105585780635342acb4146105615780636108a3db1461058d57600080fd5b80633fecc2e2146104be578063437823ec146104e557806344a00cb5146104f857806349bd5a5e1461050b5780634d5ce038146105325780634da1c7b01461054557600080fd5b80631694505e116102c9578063220f6696116102a3578063220f66961461043957806323b872dd14610446578063313ce5671461045957806336543fb91461049257600080fd5b80631694505e146103c257806318160ddd146103e95780631a7abd971461041e57600080fd5b806306fdde03146103115780630902f1ac1461032f578063095ea7b3146103575780630b9c0f551461037a5780631214a1a01461038f578063123702e214610397575b600080fd5b61031961084b565b60405161032691906122e0565b60405180910390f35b6103376108d9565b604080516001600160701b03938416815292909116602083015201610326565b61036a610365366004612345565b61099d565b6040519015158152602001610326565b61038d610388366004612345565b610a0a565b005b61038d610b04565b600c546103aa906001600160a01b031681565b6040516001600160a01b039091168152602001610326565b6103aa7f000000000000000000000000000000000000000000000000000000000000000081565b6104107f000000000000000000000000000000000000000000000000000000000000000081565b604051908152602001610326565b6014546040516001600160701b039091168152602001610326565b60035461036a9060ff1681565b61036a61045436600461236f565b610b38565b6104807f000000000000000000000000000000000000000000000000000000000000000081565b60405160ff9091168152602001610326565b6008546104a890610100900464ffffffffff1681565b60405164ffffffffff9091168152602001610326565b6104a86104cc3660046123ab565b60126020526000908152604090205464ffffffffff1681565b61038d6104f33660046123ab565b610baa565b61038d610506366004612419565b610c2f565b6103aa7f000000000000000000000000000000000000000000000000000000000000000081565b6104106105403660046123ab565b610cc8565b61038d6105533660046123ab565b610cfe565b610410600b5481565b61036a61056f3660046123ab565b6001600160a01b031660009081526002602052604090205460ff1690565b61038d61059b366004612469565b610d4f565b61038d6105ae3660046124c0565b610df5565b61038d6105c13660046124d9565b610e24565b6104106105d43660046123ab565b60066020526000908152604090205481565b61038d610e72565b61038d6105fc3660046123ab565b610f1c565b61041061060f3660046123ab565b60116020526000908152604090205481565b610410600f5481565b6001546103aa906001600160a01b031681565b6000546103aa906001600160a01b031681565b61038d61065e3660046123ab565b610f6a565b61038d6106713660046123ab565b610fb8565b600e546103aa906001600160a01b031681565b610319611006565b6013546103aa906001600160a01b031681565b61036a6106b23660046123ab565b60106020526000908152604090205460ff1681565b600d546103aa906001600160a01b031681565b61036a6106e8366004612345565b611013565b6103aa7f000000000000000000000000000000000000000000000000000000000000000081565b6103aa7f000000000000000000000000000000000000000000000000000000000000000081565b6003546104a890610100900464ffffffffff1681565b61041060095481565b61038d611029565b61038d6107703660046124c0565b611070565b610410610783366004612500565b600760209081526000928352604080842090915290825290205481565b61038d6107ae3660046123ab565b6111be565b61036a7f000000000000000000000000000000000000000000000000000000000000000081565b6014546107fd906001600160701b03811690600160701b900464ffffffffff1682565b604080516001600160701b03909316835264ffffffffff909116602083015201610326565b61038d6108303660046123ab565b611239565b610410600a5481565b60085461036a9060ff1681565b6004805461085890612533565b80601f016020809104026020016040519081016040528092919081815260200182805461088490612533565b80156108d15780601f106108a6576101008083540402835291602001916108d1565b820191906000526020600020905b8154815290600101906020018083116108b457829003601f168201915b505050505081565b6000806000807f00000000000000000000000000000000000000000000000000000000000000006001600160a01b0316630902f1ac6040518163ffffffff1660e01b8152600401606060405180830381865afa15801561093d573d6000803e3d6000fd5b505050506040513d601f19601f820116820180604052508101906109619190612584565b50915091507f0000000000000000000000000000000000000000000000000000000000000000156109955790939092509050565b939092509050565b3360008181526007602090815260408083206001600160a01b038716808552925280832085905551919290917f8c5be1e5ebec7d5bd14f71427d1e84f3dd0314c0f7b2291e5b200ac8c7c3b925906109f89086815260200190565b60405180910390a35060015b92915050565b6001546001600160a01b03163314610a4e5760405162461bcd60e51b8152602060048201526002602482015261216f60f01b60448201526064015b60405180910390fd5b306001600160a01b03831603610a8e5760405162461bcd60e51b8152602060048201526005602482015264217468697360d81b6044820152606401610a45565b60405163a9059cbb60e01b8152336004820152602481018290526001600160a01b0383169063a9059cbb906044016020604051808303816000875af1158015610adb573d6000803e3d6000fd5b505050506040513d601f19601f82011682018060405250810190610aff91906125c9565b505050565b6000546001600160a01b03163314610b2e5760405162461bcd60e51b8152600401610a45906125e6565b610b366112ae565b565b6001600160a01b03831660009081526007602090815260408083203384529091528120546000198114610b9457610b6f8382612622565b6001600160a01b03861660009081526007602090815260408083203384529091529020555b610b9f858585611307565b506001949350505050565b6000546001600160a01b03163314610bd45760405162461bcd60e51b8152600401610a45906125e6565b6001600160a01b038116600081815260026020908152604091829020805460ff1916600117905590519182527ff1d6512ec7550bf605a5a38910e48fb6a57938ed74a5afa01753fa023001005c91015b60405180910390a150565b6000546001600160a01b03163314610c595760405162461bcd60e51b8152600401610a45906125e6565b8060005b81811015610cc257600160026000868685818110610c7d57610c7d612635565b9050602002016020810190610c9291906123ab565b6001600160a01b031681526020810191909152604001600020805460ff1916911515919091179055600101610c5d565b50505050565b6001600160a01b03811660009081526010602052604081205460ff1615610cf157506001919050565b506000919050565b919050565b6000546001600160a01b03163314610d285760405162461bcd60e51b8152600401610a45906125e6565b600e80546001600160a01b0319166001600160a01b038316179055610d4c81610baa565b50565b6000546001600160a01b03163314610d795760405162461bcd60e51b8152600401610a45906125e6565b60c98210610d8657600080fd5b60005b82811015610cc2578160106000868685818110610da857610da8612635565b9050602002016020810190610dbd91906123ab565b6001600160a01b031681526020810191909152604001600020805460ff1916911515919091179055610dee8161264b565b9050610d89565b6000546001600160a01b03163314610e1f5760405162461bcd60e51b8152600401610a45906125e6565b600f55565b6000546001600160a01b03163314610e4e5760405162461bcd60e51b8152600401610a45906125e6565b6008805464ffffffffff9092166101000265ffffffffff0019909216919091179055565b601454610e8f90600160701b900464ffffffffff16610e10612664565b64ffffffffff16421015610ece5760405162461bcd60e51b8152600401610a459060208082526004908201526318b437b960e11b604082015260600190565b6014805464ffffffffff60701b1916600160701b4264ffffffffff16021790556000610ef86108d9565b50601480546001600160701b0319166001600160701b039290921691909117905550565b6000546001600160a01b03163314610f465760405162461bcd60e51b8152600401610a45906125e6565b600c80546001600160a01b0319166001600160a01b038316179055610d4c81610baa565b6000546001600160a01b03163314610f945760405162461bcd60e51b8152600401610a45906125e6565b601380546001600160a01b0319166001600160a01b038316179055610d4c81610baa565b6000546001600160a01b03163314610fe25760405162461bcd60e51b8152600401610a45906125e6565b600d80546001600160a01b0319166001600160a01b038316179055610d4c81610baa565b6005805461085890612533565b6000611020338484611307565b50600192915050565b6000546001600160a01b031633146110535760405162461bcd60e51b8152600401610a45906125e6565b6008805460ff191660011790556110686119dc565b610b36610e72565b6013546001600160a01b031633146110b25760405162461bcd60e51b81526020600482015260056024820152646379636c6560d81b6044820152606401610a45565b6001600160a01b037f0000000000000000000000000000000000000000000000000000000000000000166000908152600660205260408120546110f79060039061269f565b9050600081831015611109578261110b565b815b601354909150611146907f0000000000000000000000000000000000000000000000000000000000000000906001600160a01b031683611a49565b7f00000000000000000000000000000000000000000000000000000000000000006001600160a01b031663fff6cae96040518163ffffffff1660e01b8152600401600060405180830381600087803b1580156111a157600080fd5b505af11580156111b5573d6000803e3d6000fd5b50505050505050565b6000546001600160a01b031633146111e85760405162461bcd60e51b8152600401610a45906125e6565b6001600160a01b038116600081815260026020908152604091829020805460ff1916905590519182527f976ff2b01cb494434f270c12da5e45ac90c699b50c2312e2bb2fead2466aa4fe9101610c24565b6000546001600160a01b031633146112635760405162461bcd60e51b8152600401610a45906125e6565b600080546001600160a01b0319166001600160a01b0383169081178255604051909133917f8be0079c531659141344cd1fd0a4f28419497f9722a3daafe3b4186f6b6457e09190a350565b6003805460ff19166001179055600954156112e257600954600d546112dc91906001600160a01b0316611ad9565b60006009555b600b54156112fb576112f5600b54611be1565b6000600b555b6003805460ff19169055565b61131083610cc8565b1561134f5760405162461bcd60e51b815260206004820152600f60248201526e697352657761726420213d2030202160881b6044820152606401610a45565b60035460ff168061137857506001600160a01b03831660009081526002602052604090205460ff165b8061139b57506001600160a01b03821660009081526002602052604090205460ff165b156113ab57610aff838383611a49565b813b15806113ea5750816001600160a01b03167f00000000000000000000000000000000000000000000000000000000000000006001600160a01b0316145b6114215760405162461bcd60e51b815260206004820152600860248201526718dbdb9d1c9858dd60c21b6044820152606401610a45565b826001600160a01b03167f00000000000000000000000000000000000000000000000000000000000000006001600160a01b03160361161d5760085460ff166114925760405162461bcd60e51b815260206004820152600360248201526270726560e81b6044820152606401610a45565b60008061149d6108d9565b91509150600a816001600160701b0316816114ba576114ba612689565b046001600160701b03168311156115015760405162461bcd60e51b815260206004820152600b60248201526a6d6178206361702062757960a81b6044820152606401610a45565b61150a82611e51565b600061152984846001600160701b0316846001600160701b0316611ec2565b6001600160a01b0386166000908152601160209081526040808320805485019055601282528220805464ffffffffff19164264ffffffffff1617905561dead8252600690527f1aecba4ebe7a4e0673e4891b2b092b2228e4322380b579fb494fad3da8586e22549192509069d3c21bcecceda10000008110156115e6576103e860198702049150818169d3c21bcecceda100000003116115d5578069d3c21bcecceda1000000036115d7565b815b91506115e68861dead84611a49565b600b80546103e86019890204908101909155611603893083611a49565b611612898983868b0303611a49565b505050505050505050565b816001600160a01b03167f00000000000000000000000000000000000000000000000000000000000000006001600160a01b0316036119d15760085460ff1661168e5760405162461bcd60e51b815260206004820152600360248201526270726560e81b6044820152606401610a45565b6008546001600160a01b0384166000908152601260205260409020546116c39164ffffffffff61010090910481169116612664565b64ffffffffff164210156117025760405162461bcd60e51b8152600401610a459060208082526004908201526318dbdb1960e21b604082015260600190565b60008061170d6108d9565b909250905061171d600a826126b3565b6001600160701b03168311156117645760405162461bcd60e51b815260206004820152600c60248201526b1b585e0818d85c081cd95b1b60a21b6044820152606401610a45565b60006103e8611771611f16565b61177b90866126d9565b611785919061269f565b905060006103e86117978660146126d9565b6117a1919061269f565b905060006117d6826117b38589612622565b6117bd9190612622565b856001600160701b0316876001600160701b0316611f5d565b90506117e185611e51565b6001600160a01b0388166000908152601160205260408120548211611824576001600160a01b03891660009081526011602052604090208054839003905561191a565b6001600160a01b0389166000908152601160205260409020541580159061186257506001600160a01b03891660009081526011602052604090205482115b156118e7576001600160a01b03891660009081526011602052604081205461188a9084612622565b905060006118ab82896001600160701b0316896001600160701b0316611f5d565b9050600a6118ba8260036126d9565b6118c4919061269f565b6001600160a01b038c16600090815260116020526040812055925061191a915050565b600a6118f48860036126d9565b6118fe919061269f565b6001600160a01b038a1660009081526011602052604081205590505b80156119425761192b893083611a49565b61193481611fac565b156119425761194281611fd2565b61195a600954600b5461195591906126f0565b6121dc565b15611967576119676112ae565b61197b893061197686886126f0565b611a49565b836009600082825461198d91906126f0565b9250508190555082600a60008282546119a691906126f0565b909155506116129050898985876119bd868d612622565b6119c79190612622565b6119769190612622565b610aff838383611a49565b600354610100900464ffffffffff1615611a2b5760405162461bcd60e51b815260206004820152601060248201526f105b1c9958591e481b185d5b98da195960821b6044820152606401610a45565b6003805465ffffffffff0019166101004264ffffffffff1602179055565b6001600160a01b03831660009081526006602052604081208054839290611a71908490612622565b90915550506001600160a01b03808316600081815260066020526040908190208054850190555190918516907fddf252ad1be2c89b69c2b068fc378daa952ba7f163c4a11628f55a4df523b3ef90611acc9085815260200190565b60405180910390a3505050565b6040805160028082526060820183526000926020830190803683370190505090503081600081518110611b0e57611b0e612635565b60200260200101906001600160a01b031690816001600160a01b0316815250507f000000000000000000000000000000000000000000000000000000000000000081600181518110611b6257611b62612635565b6001600160a01b039283166020918202929092010152604051635c11d79560e01b81527f000000000000000000000000000000000000000000000000000000000000000090911690635c11d79590611bc7908690600090869088904290600401612703565b600060405180830381600087803b1580156111a157600080fd5b7f00000000000000000000000000000000000000000000000000000000000000006000611c0f60028461269f565b90506000611c1d8285612622565b6040516370a0823160e01b81523060048201529091506000906001600160a01b038516906370a0823190602401602060405180830381865afa158015611c67573d6000803e3d6000fd5b505050506040513d601f19601f82011682018060405250810190611c8b9190612774565b9050611cb7837f0000000000000000000000000000000000000000000000000000000000000000611ad9565b6040516370a0823160e01b81527f00000000000000000000000000000000000000000000000000000000000000006001600160a01b0381811660048401528616916323b872dd9190309084906370a0823190602401602060405180830381865afa158015611d29573d6000803e3d6000fd5b505050506040513d601f19601f82011682018060405250810190611d4d9190612774565b6040516001600160e01b031960e086901b1681526001600160a01b03938416600482015292909116602483015260448201526064016020604051808303816000875af1158015611da1573d6000803e3d6000fd5b505050506040513d601f19601f82011682018060405250810190611dc591906125c9565b506040516370a0823160e01b815230600482015260009082906001600160a01b038716906370a0823190602401602060405180830381865afa158015611e0f573d6000803e3d6000fd5b505050506040513d601f19601f82011682018060405250810190611e339190612774565b611e3d9190612622565b9050611e4983826121fd565b505050505050565b601454611e6e90600160701b900464ffffffffff16610e10612664565b64ffffffffff164210610d4c576014805472ffffffffffffffffffffffffffffffffffffff1916600160701b4264ffffffffff16026001600160701b031916176001600160701b0392909216919091179055565b600080611ecf85856126d9565b611edb906127106126d9565b90506000611ee98685612622565b611ef5906126f76126d9565b9050611f01818361269f565b611f0c9060016126f0565b9695505050505050565b600354601e90610100900464ffffffffff1615801590611f51575060035461038490611f4e90610100900464ffffffffff1642612622565b11155b15611f5a575060505b90565b600080611f6c856126f76126d9565b90506000611f7a84836126d9565b9050600082611f8b876127106126d9565b611f9591906126f0565b9050611fa1818361269f565b979650505050505050565b6000633b9aca008210158015611fc5575060035460ff16155b15610cf157506001919050565b6003805460ff19166001179055600954600b543060009081526006602052604081205490929161200191612622565b61200b9190612622565b9050600061201a8360026126d9565b905060008282101561202c578161202e565b825b905061205a817f0000000000000000000000000000000000000000000000000000000000000000611ad9565b6040516370a0823160e01b81526001600160a01b037f0000000000000000000000000000000000000000000000000000000000000000811660048301526000917f0000000000000000000000000000000000000000000000000000000000000000909116906370a0823190602401602060405180830381865afa1580156120e5573d6000803e3d6000fd5b505050506040513d601f19601f820116820180604052508101906121099190612774565b600c546040516323b872dd60e01b81526001600160a01b037f0000000000000000000000000000000000000000000000000000000000000000811660048301529182166024820152604481018390529192507f000000000000000000000000000000000000000000000000000000000000000016906323b872dd906064016020604051808303816000875af11580156121a6573d6000803e3d6000fd5b505050506040513d601f19601f820116820180604052508101906121ca91906125c9565b50506003805460ff1916905550505050565b6000600f548210158015611fc5575060035460ff16610cf157506001919050565b60405162e8e33760e81b81523060048201526001600160a01b037f000000000000000000000000000000000000000000000000000000000000000081166024830152604482018490526064820183905260006084830181905260a483015261dead60c48301524260e48301527f0000000000000000000000000000000000000000000000000000000000000000169063e8e3370090610104016060604051808303816000875af11580156122b5573d6000803e3d6000fd5b505050506040513d601f19601f820116820180604052508101906122d9919061278d565b5050505050565b600060208083528351808285015260005b8181101561230d578581018301518582016040015282016122f1565b506000604082860101526040601f19601f8301168501019250505092915050565b80356001600160a01b0381168114610cf957600080fd5b6000806040838503121561235857600080fd5b6123618361232e565b946020939093013593505050565b60008060006060848603121561238457600080fd5b61238d8461232e565b925061239b6020850161232e565b9150604084013590509250925092565b6000602082840312156123bd57600080fd5b6123c68261232e565b9392505050565b60008083601f8401126123df57600080fd5b50813567ffffffffffffffff8111156123f757600080fd5b6020830191508360208260051b850101111561241257600080fd5b9250929050565b6000806020838503121561242c57600080fd5b823567ffffffffffffffff81111561244357600080fd5b61244f858286016123cd565b90969095509350505050565b8015158114610d4c57600080fd5b60008060006040848603121561247e57600080fd5b833567ffffffffffffffff81111561249557600080fd5b6124a1868287016123cd565b90945092505060208401356124b58161245b565b809150509250925092565b6000602082840312156124d257600080fd5b5035919050565b6000602082840312156124eb57600080fd5b813564ffffffffff811681146123c657600080fd5b6000806040838503121561251357600080fd5b61251c8361232e565b915061252a6020840161232e565b90509250929050565b600181811c9082168061254757607f821691505b60208210810361256757634e487b7160e01b600052602260045260246000fd5b50919050565b80516001600160701b0381168114610cf957600080fd5b60008060006060848603121561259957600080fd5b6125a28461256d565b92506125b06020850161256d565b9150604084015163ffffffff811681146124b557600080fd5b6000602082840312156125db57600080fd5b81516123c68161245b565b6020808252600c908201526b15539055551213d49256915160a21b604082015260600190565b634e487b7160e01b600052601160045260246000fd5b81810381811115610a0457610a0461260c565b634e487b7160e01b600052603260045260246000fd5b60006001820161265d5761265d61260c565b5060010190565b64ffffffffff8181168382160190808211156126825761268261260c565b5092915050565b634e487b7160e01b600052601260045260246000fd5b6000826126ae576126ae612689565b500490565b60006001600160701b03808416806126cd576126cd612689565b92169190910492915050565b8082028115828204841417610a0457610a0461260c565b80820180821115610a0457610a0461260c565b600060a082018783526020878185015260a0604085015281875180845260c086019150828901935060005b818110156127535784516001600160a01b03168352938301939183019160010161272e565b50506001600160a01b03969096166060850152505050608001529392505050565b60006020828403121561278657600080fd5b5051919050565b6000806000606084860312156127a257600080fd5b835192506020840151915060408401519050925092509256fea2646970667358221220139d5a804a681e4f669ac143a87c8dfd1048a6e6a76c021fb4480d75efb893d664736f6c63430008140033608060405234801561001057600080fd5b5060405161014738038061014783398101604081905261002f916100a8565b60405163095ea7b360e01b815233600482015260001960248201526001600160a01b0382169063095ea7b3906044016020604051808303816000875af115801561007d573d6000803e3d6000fd5b505050506040513d601f19601f820116820180604052508101906100a191906100d8565b50506100fa565b6000602082840312156100ba57600080fd5b81516001600160a01b03811681146100d157600080fd5b9392505050565b6000602082840312156100ea57600080fd5b815180151581146100d157600080fd5b603f806101086000396000f3fe6080604052600080fdfea2646970667358221220ac5ed0267a337be473c126a330d2a1e4efa20acdf53e28750ea9a1058470844564736f6c63430008140033",
  "devdoc": {
    "kind": "dev",
    "methods": {},
    "version": 1
  },
  "userdoc": {
    "kind": "user",
    "methods": {},
    "version": 1
  },
  "storageLayout": {
    "storage": [
      {
        "astId": 2201,
        "contract": "contracts/Ava.sol:AVA",
        "label": "owner",
        "offset": 0,
        "slot": "0",
        "type": "t_address"
      },
      {
        "astId": 2203,
        "contract": "contracts/Ava.sol:AVA",
        "label": "abandonedBalanceOwner",
        "offset": 0,
        "slot": "1",
        "type": "t_address"
      },
      {
        "astId": 2071,
        "contract": "contracts/Ava.sol:AVA",
        "label": "_isExcludedFromFee",
        "offset": 0,
        "slot": "2",
        "type": "t_mapping(t_address,t_bool)"
      },
      {
        "astId": 2288,
        "contract": "contracts/Ava.sol:AVA",
        "label": "inSwapAndLiquify",
        "offset": 0,
        "slot": "3",
        "type": "t_bool"
      },
      {
        "astId": 2170,
        "contract": "contracts/Ava.sol:AVA",
        "label": "launchedAtTimestamp",
        "offset": 1,
        "slot": "3",
        "type": "t_uint40"
      },
      {
        "astId": 2414,
        "contract": "contracts/Ava.sol:AVA",
        "label": "name",
        "offset": 0,
        "slot": "4",
        "type": "t_string_storage"
      },
      {
        "astId": 2416,
        "contract": "contracts/Ava.sol:AVA",
        "label": "symbol",
        "offset": 0,
        "slot": "5",
        "type": "t_string_storage"
      },
      {
        "astId": 2424,
        "contract": "contracts/Ava.sol:AVA",
        "label": "balanceOf",
        "offset": 0,
        "slot": "6",
        "type": "t_mapping(t_address,t_uint256)"
      },
      {
        "astId": 2430,
        "contract": "contracts/Ava.sol:AVA",
        "label": "allowance",
        "offset": 0,
        "slot": "7",
        "type": "t_mapping(t_address,t_mapping(t_address,t_uint256))"
      },
      {
        "astId": 808,
        "contract": "contracts/Ava.sol:AVA",
        "label": "presale",
        "offset": 0,
        "slot": "8",
        "type": "t_bool"
      },
      {
        "astId": 811,
        "contract": "contracts/Ava.sol:AVA",
        "label": "coldTime",
        "offset": 1,
        "slot": "8",
        "type": "t_uint40"
      },
      {
        "astId": 813,
        "contract": "contracts/Ava.sol:AVA",
        "label": "AmountMarketingFee",
        "offset": 0,
        "slot": "9",
        "type": "t_uint256"
      },
      {
        "astId": 815,
        "contract": "contracts/Ava.sol:AVA",
        "label": "TechnologyFee",
        "offset": 0,
        "slot": "10",
        "type": "t_uint256"
      },
      {
        "astId": 817,
        "contract": "contracts/Ava.sol:AVA",
        "label": "AmountLPFee",
        "offset": 0,
        "slot": "11",
        "type": "t_uint256"
      },
      {
        "astId": 819,
        "contract": "contracts/Ava.sol:AVA",
        "label": "profitAddress",
        "offset": 0,
        "slot": "12",
        "type": "t_address"
      },
      {
        "astId": 821,
        "contract": "contracts/Ava.sol:AVA",
        "label": "marketingAddress",
        "offset": 0,
        "slot": "13",
        "type": "t_address"
      },
      {
        "astId": 823,
        "contract": "contracts/Ava.sol:AVA",
        "label": "technologyAddress",
        "offset": 0,
        "slot": "14",
        "type": "t_address"
      },
      {
        "astId": 826,
        "contract": "contracts/Ava.sol:AVA",
        "label": "swapAtAmount",
        "offset": 0,
        "slot": "15",
        "type": "t_uint256"
      },
      {
        "astId": 830,
        "contract": "contracts/Ava.sol:AVA",
        "label": "_bcList",
        "offset": 0,
        "slot": "16",
        "type": "t_mapping(t_address,t_bool)"
      },
      {
        "astId": 834,
        "contract": "contracts/Ava.sol:AVA",
        "label": "tOwnedU",
        "offset": 0,
        "slot": "17",
        "type": "t_mapping(t_address,t_uint256)"
      },
      {
        "astId": 838,
        "contract": "contracts/Ava.sol:AVA",
        "label": "lastBuyTime",
        "offset": 0,
        "slot": "18",
        "type": "t_mapping(t_address,t_uint40)"
      },
      {
        "astId": 840,
        "contract": "contracts/Ava.sol:AVA",
        "label": "STAKING",
        "offset": 0,
        "slot": "19",
        "type": "t_address"
      },
      {
        "astId": 848,
        "contract": "contracts/Ava.sol:AVA",
        "label": "poolStatus",
        "offset": 0,
        "slot": "20",
        "type": "t_struct(POOLUStatus)845_storage"
      }
    ],
    "types": {
      "t_address": {
        "encoding": "inplace",
        "label": "address",
        "numberOfBytes": "20"
      },
      "t_bool": {
        "encoding": "inplace",
        "label": "bool",
        "numberOfBytes": "1"
      },
      "t_mapping(t_address,t_bool)": {
        "encoding": "mapping",
        "key": "t_address",
        "label": "mapping(address => bool)",
        "numberOfBytes": "32",
        "value": "t_bool"
      },
      "t_mapping(t_address,t_mapping(t_address,t_uint256))": {
        "encoding": "mapping",
        "key": "t_address",
        "label": "mapping(address => mapping(address => uint256))",
        "numberOfBytes": "32",
        "value": "t_mapping(t_address,t_uint256)"
      },
      "t_mapping(t_address,t_uint256)": {
        "encoding": "mapping",
        "key": "t_address",
        "label": "mapping(address => uint256)",
        "numberOfBytes": "32",
        "value": "t_uint256"
      },
      "t_mapping(t_address,t_uint40)": {
        "encoding": "mapping",
        "key": "t_address",
        "label": "mapping(address => uint40)",
        "numberOfBytes": "32",
        "value": "t_uint40"
      },
      "t_string_storage": {
        "encoding": "bytes",
        "label": "string",
        "numberOfBytes": "32"
      },
      "t_struct(POOLUStatus)845_storage": {
        "encoding": "inplace",
        "label": "struct AVA.POOLUStatus",
        "members": [
          {
            "astId": 842,
            "contract": "contracts/Ava.sol:AVA",
            "label": "bal",
            "offset": 0,
            "slot": "0",
            "type": "t_uint112"
          },
          {
            "astId": 844,
            "contract": "contracts/Ava.sol:AVA",
            "label": "t",
            "offset": 14,
            "slot": "0",
            "type": "t_uint40"
          }
        ],
        "numberOfBytes": "32"
      },
      "t_uint112": {
        "encoding": "inplace",
        "label": "uint112",
        "numberOfBytes": "14"
      },
      "t_uint256": {
        "encoding": "inplace",
        "label": "uint256",
        "numberOfBytes": "32"
      },
      "t_uint40": {
        "encoding": "inplace",
        "label": "uint40",
        "numberOfBytes": "5"
      }
    }
  }
}