{
  "address": "0x7B5820Bc4A61d87FaD4253248D4B2f4ec67E722c",
  "abi": [
    {
      "inputs": [
        {
          "internalType": "contract IReferral",
          "name": "REFERRAL_",
          "type": "address"
        },
        {
          "internalType": "address",
          "name": "marketingAddress_",
          "type": "address"
        },
        {
          "internalType": "address",
          "name": "technologyAddress_",
          "type": "address"
        },
        {
          "internalType": "contract IERC20",
          "name": "USDT_",
          "type": "address"
        },
        {
          "internalType": "address",
          "name": "ROUTER_",
          "type": "address"
        }
      ],
      "stateMutability": "nonpayable",
      "type": "constructor"
    },
    {
      "inputs": [
        {
          "internalType": "uint256",
          "name": "x",
          "type": "uint256"
        },
        {
          "internalType": "uint256",
          "name": "y",
          "type": "uint256"
        }
      ],
      "name": "PRBMath_MulDiv18_Overflow",
      "type": "error"
    },
    {
      "anonymous": false,
      "inputs": [
        {
          "indexed": true,
          "internalType": "address",
          "name": "user",
          "type": "address"
        },
        {
          "indexed": true,
          "internalType": "address",
          "name": "newOwner",
          "type": "address"
        }
      ],
      "name": "OwnershipTransferred",
      "type": "event"
    },
    {
      "anonymous": false,
      "inputs": [
        {
          "indexed": true,
          "internalType": "address",
          "name": "user",
          "type": "address"
        },
        {
          "indexed": false,
          "internalType": "uint256",
          "name": "amount",
          "type": "uint256"
        },
        {
          "indexed": false,
          "internalType": "uint256",
          "name": "timestamp",
          "type": "uint256"
        },
        {
          "indexed": false,
          "internalType": "uint256",
          "name": "index",
          "type": "uint256"
        },
        {
          "indexed": false,
          "internalType": "uint256",
          "name": "stakeTime",
          "type": "uint256"
        }
      ],
      "name": "Staked",
      "type": "event"
    },
    {
      "anonymous": false,
      "inputs": [
        {
          "indexed": true,
          "internalType": "address",
          "name": "from",
          "type": "address"
        },
        {
          "indexed": true,
          "internalType": "address",
          "name": "to",
          "type": "address"
        },
        {
          "indexed": false,
          "internalType": "uint256",
          "name": "amount",
          "type": "uint256"
        }
      ],
      "name": "Transfer",
      "type": "event"
    },
    {
      "anonymous": false,
      "inputs": [
        {
          "indexed": true,
          "internalType": "address",
          "name": "user",
          "type": "address"
        },
        {
          "indexed": false,
          "internalType": "uint256",
          "name": "reward",
          "type": "uint256"
        },
        {
          "indexed": false,
          "internalType": "uint40",
          "name": "timestamp",
          "type": "uint40"
        },
        {
          "indexed": false,
          "internalType": "uint256",
          "name": "index",
          "type": "uint256"
        }
      ],
      "name": "UnStaked",
      "type": "event"
    },
    {
      "inputs": [],
      "name": "AVA",
      "outputs": [
        {
          "internalType": "contract IAVA",
          "name": "",
          "type": "address"
        }
      ],
      "stateMutability": "view",
      "type": "function"
    },
    {
      "inputs": [],
      "name": "REFERRAL",
      "outputs": [
        {
          "internalType": "contract IReferral",
          "name": "",
          "type": "address"
        }
      ],
      "stateMutability": "view",
      "type": "function"
    },
    {
      "inputs": [],
      "name": "ROUTER",
      "outputs": [
        {
          "internalType": "contract IUniswapV2Router02",
          "name": "",
          "type": "address"
        }
      ],
      "stateMutability": "view",
      "type": "function"
    },
    {
      "inputs": [],
      "name": "USDT",
      "outputs": [
        {
          "internalType": "contract IERC20",
          "name": "",
          "type": "address"
        }
      ],
      "stateMutability": "view",
      "type": "function"
    },
    {
      "inputs": [],
      "name": "abandonedBalanceOwner",
      "outputs": [
        {
          "internalType": "address",
          "name": "",
          "type": "address"
        }
      ],
      "stateMutability": "view",
      "type": "function"
    },
    {
      "inputs": [
        {
          "internalType": "address",
          "name": "account",
          "type": "address"
        }
      ],
      "name": "balanceOf",
      "outputs": [
        {
          "internalType": "uint256",
          "name": "balance",
          "type": "uint256"
        }
      ],
      "stateMutability": "view",
      "type": "function"
    },
    {
      "inputs": [
        {
          "internalType": "address",
          "name": "",
          "type": "address"
        }
      ],
      "name": "balances",
      "outputs": [
        {
          "internalType": "uint256",
          "name": "",
          "type": "uint256"
        }
      ],
      "stateMutability": "view",
      "type": "function"
    },
    {
      "inputs": [
        {
          "internalType": "address",
          "name": "token",
          "type": "address"
        },
        {
          "internalType": "uint256",
          "name": "amount",
          "type": "uint256"
        }
      ],
      "name": "claimAbandonedBalance",
      "outputs": [],
      "stateMutability": "nonpayable",
      "type": "function"
    },
    {
      "inputs": [],
      "name": "decimals",
      "outputs": [
        {
          "internalType": "uint8",
          "name": "",
          "type": "uint8"
        }
      ],
      "stateMutability": "view",
      "type": "function"
    },
    {
      "inputs": [
        {
          "internalType": "address",
          "name": "to",
          "type": "address"
        },
        {
          "internalType": "uint256",
          "name": "_amount",
          "type": "uint256"
        }
      ],
      "name": "emergencyWithdrawAVA",
      "outputs": [],
      "stateMutability": "nonpayable",
      "type": "function"
    },
    {
      "inputs": [
        {
          "internalType": "address",
          "name": "_user",
          "type": "address"
        }
      ],
      "name": "getTeamKpi",
      "outputs": [
        {
          "internalType": "uint256",
          "name": "",
          "type": "uint256"
        }
      ],
      "stateMutability": "view",
      "type": "function"
    },
    {
      "inputs": [
        {
          "internalType": "address",
          "name": "_user",
          "type": "address"
        },
        {
          "internalType": "uint256",
          "name": "_offset",
          "type": "uint256"
        },
        {
          "internalType": "uint256",
          "name": "_limit",
          "type": "uint256"
        },
        {
          "internalType": "uint8",
          "name": "_status",
          "type": "uint8"
        },
        {
          "internalType": "uint8",
          "name": "_listType",
          "type": "uint8"
        }
      ],
      "name": "getUserRecords",
      "outputs": [
        {
          "components": [
            {
              "internalType": "uint32",
              "name": "id",
              "type": "uint32"
            },
            {
              "internalType": "uint40",
              "name": "stakeTime",
              "type": "uint40"
            },
            {
              "internalType": "uint128",
              "name": "amount",
              "type": "uint128"
            },
            {
              "internalType": "bool",
              "name": "status",
              "type": "bool"
            },
            {
              "internalType": "uint8",
              "name": "stakeIndex",
              "type": "uint8"
            },
            {
              "internalType": "uint40",
              "name": "unStakeTime",
              "type": "uint40"
            }
          ],
          "internalType": "struct AvaStaking.Record[]",
          "name": "records",
          "type": "tuple[]"
        },
        {
          "internalType": "uint256",
          "name": "total",
          "type": "uint256"
        }
      ],
      "stateMutability": "view",
      "type": "function"
    },
    {
      "inputs": [],
      "name": "isBuyUnStake",
      "outputs": [
        {
          "internalType": "bool",
          "name": "",
          "type": "bool"
        }
      ],
      "stateMutability": "view",
      "type": "function"
    },
    {
      "inputs": [
        {
          "internalType": "address",
          "name": "user",
          "type": "address"
        }
      ],
      "name": "isPreacher",
      "outputs": [
        {
          "internalType": "bool",
          "name": "",
          "type": "bool"
        }
      ],
      "stateMutability": "view",
      "type": "function"
    },
    {
      "inputs": [],
      "name": "marketingAddress",
      "outputs": [
        {
          "internalType": "address",
          "name": "",
          "type": "address"
        }
      ],
      "stateMutability": "view",
      "type": "function"
    },
    {
      "inputs": [],
      "name": "maxStakeAmount",
      "outputs": [
        {
          "internalType": "uint256",
          "name": "",
          "type": "uint256"
        }
      ],
      "stateMutability": "view",
      "type": "function"
    },
    {
      "inputs": [],
      "name": "name",
      "outputs": [
        {
          "internalType": "string",
          "name": "",
          "type": "string"
        }
      ],
      "stateMutability": "view",
      "type": "function"
    },
    {
      "inputs": [],
      "name": "network1In",
      "outputs": [
        {
          "internalType": "uint256",
          "name": "value",
          "type": "uint256"
        }
      ],
      "stateMutability": "view",
      "type": "function"
    },
    {
      "inputs": [],
      "name": "owner",
      "outputs": [
        {
          "internalType": "address",
          "name": "",
          "type": "address"
        }
      ],
      "stateMutability": "view",
      "type": "function"
    },
    {
      "inputs": [
        {
          "internalType": "uint256",
          "name": "",
          "type": "uint256"
        }
      ],
      "name": "rates",
      "outputs": [
        {
          "internalType": "uint256",
          "name": "",
          "type": "uint256"
        }
      ],
      "stateMutability": "view",
      "type": "function"
    },
    {
      "inputs": [
        {
          "internalType": "uint256",
          "name": "index",
          "type": "uint256"
        }
      ],
      "name": "redeemUnStake",
      "outputs": [],
      "stateMutability": "nonpayable",
      "type": "function"
    },
    {
      "inputs": [
        {
          "internalType": "address",
          "name": "user",
          "type": "address"
        },
        {
          "internalType": "uint8",
          "name": "index",
          "type": "uint8"
        }
      ],
      "name": "rewardOfSlot",
      "outputs": [
        {
          "internalType": "uint256",
          "name": "reward",
          "type": "uint256"
        }
      ],
      "stateMutability": "view",
      "type": "function"
    },
    {
      "inputs": [
        {
          "internalType": "address",
          "name": "_ava",
          "type": "address"
        }
      ],
      "name": "setAVA",
      "outputs": [],
      "stateMutability": "nonpayable",
      "type": "function"
    },
    {
      "inputs": [
        {
          "internalType": "bool",
          "name": "_isBuyUnStake",
          "type": "bool"
        }
      ],
      "name": "setIsBuyUnStake",
      "outputs": [],
      "stateMutability": "nonpayable",
      "type": "function"
    },
    {
      "inputs": [
        {
          "internalType": "address",
          "name": "_account",
          "type": "address"
        }
      ],
      "name": "setMarketingAddress",
      "outputs": [],
      "stateMutability": "nonpayable",
      "type": "function"
    },
    {
      "inputs": [
        {
          "internalType": "uint256[3]",
          "name": "stakeDays_",
          "type": "uint256[3]"
        }
      ],
      "name": "setStakeDays",
      "outputs": [],
      "stateMutability": "nonpayable",
      "type": "function"
    },
    {
      "inputs": [
        {
          "internalType": "address",
          "name": "_user",
          "type": "address"
        },
        {
          "internalType": "uint256",
          "name": "_value",
          "type": "uint256"
        }
      ],
      "name": "setTeamVirtuallyInvestValue",
      "outputs": [],
      "stateMutability": "nonpayable",
      "type": "function"
    },
    {
      "inputs": [
        {
          "internalType": "address",
          "name": "addr",
          "type": "address"
        }
      ],
      "name": "setTechnologyAddress",
      "outputs": [],
      "stateMutability": "nonpayable",
      "type": "function"
    },
    {
      "inputs": [
        {
          "internalType": "uint40",
          "name": "_unStakeDay",
          "type": "uint40"
        }
      ],
      "name": "setUnStakeDay",
      "outputs": [],
      "stateMutability": "nonpayable",
      "type": "function"
    },
    {
      "inputs": [
        {
          "internalType": "uint256",
          "name": "_unStakeFee",
          "type": "uint256"
        }
      ],
      "name": "setUnStakeFee",
      "outputs": [],
      "stateMutability": "nonpayable",
      "type": "function"
    },
    {
      "inputs": [],
      "name": "slippage",
      "outputs": [
        {
          "internalType": "uint256",
          "name": "",
          "type": "uint256"
        }
      ],
      "stateMutability": "view",
      "type": "function"
    },
    {
      "inputs": [
        {
          "internalType": "uint128",
          "name": "_amount",
          "type": "uint128"
        },
        {
          "internalType": "uint256",
          "name": "amountOutMin",
          "type": "uint256"
        },
        {
          "internalType": "uint8",
          "name": "_stakeIndex",
          "type": "uint8"
        }
      ],
      "name": "stake",
      "outputs": [],
      "stateMutability": "nonpayable",
      "type": "function"
    },
    {
      "inputs": [
        {
          "internalType": "address",
          "name": "user",
          "type": "address"
        }
      ],
      "name": "stakeCount",
      "outputs": [
        {
          "internalType": "uint256",
          "name": "count",
          "type": "uint256"
        }
      ],
      "stateMutability": "view",
      "type": "function"
    },
    {
      "inputs": [
        {
          "internalType": "uint256",
          "name": "",
          "type": "uint256"
        }
      ],
      "name": "stakeDays",
      "outputs": [
        {
          "internalType": "uint256",
          "name": "",
          "type": "uint256"
        }
      ],
      "stateMutability": "view",
      "type": "function"
    },
    {
      "inputs": [
        {
          "internalType": "uint128",
          "name": "_amount",
          "type": "uint128"
        },
        {
          "internalType": "uint256",
          "name": "amountOutMin",
          "type": "uint256"
        },
        {
          "internalType": "uint8",
          "name": "_stakeIndex",
          "type": "uint8"
        },
        {
          "internalType": "address",
          "name": "parent",
          "type": "address"
        }
      ],
      "name": "stakeWithInviter",
      "outputs": [],
      "stateMutability": "nonpayable",
      "type": "function"
    },
    {
      "inputs": [],
      "name": "symbol",
      "outputs": [
        {
          "internalType": "string",
          "name": "",
          "type": "string"
        }
      ],
      "stateMutability": "view",
      "type": "function"
    },
    {
      "inputs": [],
      "name": "sync",
      "outputs": [],
      "stateMutability": "nonpayable",
      "type": "function"
    },
    {
      "inputs": [
        {
          "internalType": "uint256",
          "name": "",
          "type": "uint256"
        }
      ],
      "name": "t_supply",
      "outputs": [
        {
          "internalType": "uint40",
          "name": "stakeTime",
          "type": "uint40"
        },
        {
          "internalType": "uint160",
          "name": "tamount",
          "type": "uint160"
        }
      ],
      "stateMutability": "view",
      "type": "function"
    },
    {
      "inputs": [
        {
          "internalType": "address",
          "name": "",
          "type": "address"
        }
      ],
      "name": "teamTotalInvestValue",
      "outputs": [
        {
          "internalType": "uint256",
          "name": "",
          "type": "uint256"
        }
      ],
      "stateMutability": "view",
      "type": "function"
    },
    {
      "inputs": [
        {
          "internalType": "address",
          "name": "",
          "type": "address"
        }
      ],
      "name": "teamVirtuallyInvestValue",
      "outputs": [
        {
          "internalType": "uint256",
          "name": "",
          "type": "uint256"
        }
      ],
      "stateMutability": "view",
      "type": "function"
    },
    {
      "inputs": [],
      "name": "technologyAddress",
      "outputs": [
        {
          "internalType": "address",
          "name": "",
          "type": "address"
        }
      ],
      "stateMutability": "view",
      "type": "function"
    },
    {
      "inputs": [],
      "name": "totalSupply",
      "outputs": [
        {
          "internalType": "uint256",
          "name": "",
          "type": "uint256"
        }
      ],
      "stateMutability": "view",
      "type": "function"
    },
    {
      "inputs": [
        {
          "internalType": "address",
          "name": "newOwner",
          "type": "address"
        }
      ],
      "name": "transferOwnership",
      "outputs": [],
      "stateMutability": "nonpayable",
      "type": "function"
    },
    {
      "inputs": [
        {
          "internalType": "uint256",
          "name": "index",
          "type": "uint256"
        }
      ],
      "name": "unStake",
      "outputs": [
        {
          "internalType": "uint256",
          "name": "",
          "type": "uint256"
        }
      ],
      "stateMutability": "nonpayable",
      "type": "function"
    },
    {
      "inputs": [],
      "name": "unStakeDay",
      "outputs": [
        {
          "internalType": "uint40",
          "name": "",
          "type": "uint40"
        }
      ],
      "stateMutability": "view",
      "type": "function"
    },
    {
      "inputs": [],
      "name": "unStakeFee",
      "outputs": [
        {
          "internalType": "uint256",
          "name": "",
          "type": "uint256"
        }
      ],
      "stateMutability": "view",
      "type": "function"
    },
    {
      "inputs": [
        {
          "internalType": "address",
          "name": "",
          "type": "address"
        }
      ],
      "name": "userIndex",
      "outputs": [
        {
          "internalType": "uint256",
          "name": "",
          "type": "uint256"
        }
      ],
      "stateMutability": "view",
      "type": "function"
    },
    {
      "inputs": [
        {
          "internalType": "address",
          "name": "",
          "type": "address"
        },
        {
          "internalType": "uint256",
          "name": "",
          "type": "uint256"
        }
      ],
      "name": "userStakeRecord",
      "outputs": [
        {
          "internalType": "uint32",
          "name": "id",
          "type": "uint32"
        },
        {
          "internalType": "uint40",
          "name": "stakeTime",
          "type": "uint40"
        },
        {
          "internalType": "uint128",
          "name": "amount",
          "type": "uint128"
        },
        {
          "internalType": "bool",
          "name": "status",
          "type": "bool"
        },
        {
          "internalType": "uint8",
          "name": "stakeIndex",
          "type": "uint8"
        },
        {
          "internalType": "uint40",
          "name": "unStakeTime",
          "type": "uint40"
        }
      ],
      "stateMutability": "view",
      "type": "function"
    },
    {
      "inputs": [
        {
          "internalType": "address",
          "name": "",
          "type": "address"
        },
        {
          "internalType": "uint256",
          "name": "",
          "type": "uint256"
        }
      ],
      "name": "userUnStakeRecord",
      "outputs": [
        {
          "internalType": "uint32",
          "name": "id",
          "type": "uint32"
        },
        {
          "internalType": "uint40",
          "name": "stakeTime",
          "type": "uint40"
        },
        {
          "internalType": "uint128",
          "name": "amount",
          "type": "uint128"
        },
        {
          "internalType": "bool",
          "name": "status",
          "type": "bool"
        },
        {
          "internalType": "uint8",
          "name": "stakeIndex",
          "type": "uint8"
        },
        {
          "internalType": "uint40",
          "name": "unStakeTime",
          "type": "uint40"
        }
      ],
      "stateMutability": "view",
      "type": "function"
    }
  ],
  "transactionHash": "0x043b5092f3c8a3938b0e4dd592749b849c8886a904e0ccca4967733c9593cde9",
  "args": [
    "0x54e03b51104Ab00bCd376687769C12E86CAFE319",
    "0xAeEffc01Ea123845c7F2d9B545C45a70230db971",
    "0x69440A1e527F17f32A48772ee164F8b452b89D2C",
    "0xF7c36DdfC878798C0edF726aDB2Fc9795190A270",
    "0x10ED43C718714eb63d5aA57B78B54704E256024E"
  ],
  "numDeployments": 1,
  "solcInputHash": "4f8b781d948ff54e80ab288b98de812c",
  "bytecode": "0x610140604052670de0b6bbb9e544c060e0908152670de0b6c3c63b40a061010052670de0b6d3cc89fcc0610120526200003d906002906003620001ce565b50604080516060810182526201518081526213c680602082015262278d0091810191909152620000729060059060036200021c565b506011805465ffffffffff0019166301518000179055601e60c0523480156200009a57600080fd5b506040516200479e3803806200479e833981016040819052620000bd9162000284565b60008054336001600160a01b031991821681178355600180549092168117909155604051839282917f8be0079c531659141344cd1fd0a4f28419497f9722a3daafe3b4186f6b6457e0908290a3506001600160a01b039081166080819052600980546001600160a01b03199081168985161790915584831660a0819052600b80548316898616179055600c805490921693871693909317905560405163095ea7b360e01b81526004810191909152600019602482015263095ea7b3906044016020604051808303816000875af11580156200019c573d6000803e3d6000fd5b505050506040513d601f19601f82011682018060405250810190620001c2919062000304565b5050505050506200032f565b82600381019282156200020a579160200282015b828111156200020a57825182906001600160401b0316905591602001919060010190620001e2565b506200021892915062000254565b5090565b82600381019282156200020a579160200282015b828111156200020a578251829062ffffff1690559160200191906001019062000230565b5b8082111562000218576000815560010162000255565b6001600160a01b03811681146200028157600080fd5b50565b600080600080600060a086880312156200029d57600080fd5b8551620002aa816200026b565b6020870151909550620002bd816200026b565b6040870151909450620002d0816200026b565b6060870151909350620002e3816200026b565b6080870151909250620002f6816200026b565b809150509295509295909350565b6000602082840312156200031757600080fd5b815180151581146200032857600080fd5b9392505050565b60805160a05160c0516143746200042a6000396000818161104a01526125fb0152600081816106af01528181610e4d01528181610ecd01528181610f840152818161118f01528181611242015281816112d601528181611ddc01528181611ee401528181612088015281816121770152818161226201528181612c1f01528181612cb901528181612dc901528181612eb301528181612f9e01528181613089015281816131740152818161325f015281816133340152818161341701528181613485015261357401526000818161047b01528181610b690152818161223801528181612ad2015281816138a5015261398601526143746000f3fe608060405234801561001057600080fd5b50600436106102bb5760003560e01c80635e61da0811610182578063b108b4cb116100e9578063dd418ae2116100a2578063f2fde38b1161007c578063f2fde38b1461075d578063f4a9028114610770578063f4fdf73214610783578063fff6cae91461079657600080fd5b8063dd418ae214610724578063df27738114610737578063e189a45d1461074a57600080fd5b8063b108b4cb1461068a578063c54e44eb146106aa578063c63568c7146106d1578063c96679fe146106e4578063ce7cd93414610704578063d9776b141461071157600080fd5b8063906e9dd01161013b578063906e9dd01461061257806394417e231461062557806395d89b41146106385780639bde7eab1461065b578063a5ece94114610664578063a7b75edc1461067757600080fd5b80635e61da081461057857806370a08231146105b057806372fbab3b146105c357806386847a55146105cb57806388a3e9e3146105ec5780638da5cb5b146105ff57600080fd5b8063313ce567116102265780634da1c7b0116101df5780634da1c7b0146105015780635305ee121461051457806359f0c0e7146105275780635baebb781461054a5780635d3eea911461055d5780635d80ca321461057057600080fd5b8063313ce5671461045c57806332fe7b261461047657806333060d901461049d5780633e032a3b146104c65780633f8dc9b0146104ce5780634b413c2a146104e157600080fd5b8063119b99f211610278578063119b99f2146103e757806318160ddd146103fa57806325e2538c1461040357806327e235e3146104165780632a5eb6631461043657806330b250c81461044957600080fd5b8063069a8f2d146102c057806306fdde03146102e657806308adb4be1461031c578063094f5ecc1461037b5780630b9c0f55146103a65780631196eebf146103bb575b600080fd5b6102d36102ce366004613b64565b61079e565b6040519081526020015b60405180910390f35b61030f6040518060400160405280600a8152602001695374616b65642041564160b01b81525081565b6040516102dd9190613b99565b61032f61032a366004613be7565b6107ed565b6040805163ffffffff909716875264ffffffffff95861660208801526001600160801b0390941693860193909352901515606085015260ff1660808401521660a082015260c0016102dd565b60085461038e906001600160a01b031681565b6040516001600160a01b0390911681526020016102dd565b6103b96103b4366004613be7565b610862565b005b6011546103d190610100900464ffffffffff1681565b60405164ffffffffff90911681526020016102dd565b6103b96103f5366004613be7565b610963565b6102d3600d5481565b6103b9610411366004613c13565b6109a9565b6102d3610424366004613c2c565b600e6020526000908152604090205481565b6103b9610444366004613c2c565b610b08565b6102d3610457366004613c13565b610bdc565b610464601281565b60405160ff90911681526020016102dd565b61038e7f000000000000000000000000000000000000000000000000000000000000000081565b6102d36104ab366004613c2c565b6001600160a01b031660009081526010602052604090205490565b6102d3600581565b6103b96104dc366004613c57565b610bf3565b6102d36104ef366004613c2c565b60146020526000908152604090205481565b6103b961050f366004613c2c565b610c30565b61032f610522366004613be7565b610c7c565b61053a610535366004613c2c565b610c98565b60405190151581526020016102dd565b6103b9610558366004613c8b565b610cd2565b6102d361056b366004613c13565b610d88565b6102d3611413565b61058b610586366004613c13565b6114e9565b6040805164ffffffffff90931683526001600160a01b039091166020830152016102dd565b6102d36105be366004613c2c565b611524565b6102d36115cb565b6105de6105d9366004613cc7565b611683565b6040516102dd929190613d20565b60015461038e906001600160a01b031681565b60005461038e906001600160a01b031681565b6103b9610620366004613c2c565b611927565b600c5461038e906001600160a01b031681565b61030f604051806040016040528060048152602001637341564160e01b81525081565b6102d3600a5481565b600b5461038e906001600160a01b031681565b6103b9610685366004613e04565b611973565b6102d3610698366004613c2c565b60136020526000908152604090205481565b61038e7f000000000000000000000000000000000000000000000000000000000000000081565b60095461038e906001600160a01b031681565b6102d36106f2366004613c2c565b600f6020526000908152604090205481565b60115461053a9060ff1681565b6103b961071f366004613be7565b6119aa565b6102d3610732366004613c13565b611a06565b6103b9610745366004613c13565b611a16565b6103b9610758366004613e82565b611a80565b6103b961076b366004613c2c565b611c8d565b6103b961077e366004613ed1565b611d02565b6102d3610791366004613c2c565b611d96565b6103b9611dc4565b6001600160a01b0382166000908152601060205260408120805482919060ff85169081106107ce576107ce613ef8565b9060005260206000200190506107e381611fb6565b9150505b92915050565b6010602052816000526040600020818154811061080957600080fd5b60009182526020909120015463ffffffff8116925064ffffffffff600160201b8204811692506001600160801b03600160481b8304169160ff600160c81b8204811692600160d01b830490911691600160d81b90041686565b6001546001600160a01b031633146108a65760405162461bcd60e51b8152602060048201526002602482015261216f60f01b60448201526064015b60405180910390fd5b6008546001600160a01b03908116908316036108ed5760405162461bcd60e51b815260040161089d906020808252600490820152632161766160e01b604082015260600190565b60405163a9059cbb60e01b81526001600160a01b0383169063a9059cbb9061091b9033908590600401613f0e565b6020604051808303816000875af115801561093a573d6000803e3d6000fd5b505050506040513d601f19601f8201168201806040525081019061095e9190613f27565b505050565b6000546001600160a01b0316331461098d5760405162461bcd60e51b815260040161089d90613f44565b6001600160a01b03909116600090815260146020526040902055565b3233146109c85760405162461bcd60e51b815260040161089d90613f6a565b3360009081526012602052604081208054839081106109e9576109e9613ef8565b600091825260209091206011549101805490925064ffffffffff42811692610a2292610100909104821691600160201b90910416613f9d565b64ffffffffff1610610a5e5760405162461bcd60e51b81526020600482015260056024820152642174696d6560d81b604482015260640161089d565b8054600160c81b900460ff1615610aa05760405162461bcd60e51b815260206004820152600660248201526572656465656d60d01b604482015260640161089d565b8054600160c81b600161ff0160c81b03909116600160d81b4264ffffffffff1602171780825560085460405163a9059cbb60e01b81526001600160a01b039091169163a9059cbb9161091b913391600160481b9091046001600160801b031690600401613f0e565b6000546001600160a01b03163314610b325760405162461bcd60e51b815260040161089d90613f44565b600880546001600160a01b0319166001600160a01b03831690811790915560405163095ea7b360e01b815263095ea7b390610b95907f00000000000000000000000000000000000000000000000000000000000000009060001990600401613f0e565b6020604051808303816000875af1158015610bb4573d6000803e3d6000fd5b505050506040513d601f19601f82011682018060405250810190610bd89190613f27565b5050565b60058160038110610bec57600080fd5b0154905081565b6000546001600160a01b03163314610c1d5760405162461bcd60e51b815260040161089d90613f44565b6011805460ff1916911515919091179055565b6000546001600160a01b03163314610c5a5760405162461bcd60e51b815260040161089d90613f44565b600c80546001600160a01b0319166001600160a01b0392909216919091179055565b6012602052816000526040600020818154811061080957600080fd5b600046603814610caa57506001919050565b506001600160a01b03166000908152600e6020526040902054680ad78ebc5ac6200000111590565b323314610cf15760405162461bcd60e51b815260040161089d90613f6a565b610cf9611413565b836001600160801b03161115610d395760405162461bcd60e51b815260206004820152600560248201526403c313030360dc1b604482015260640161089d565b60028160ff161115610d735760405162461bcd60e51b81526020600482015260036024820152621e1e9960e91b604482015260640161089d565b610d7d838361205e565b61095e338483612344565b6000323314610da95760405162461bcd60e51b815260040161089d90613f6a565b600080610db5846127ca565b6008546040516370a0823160e01b81523060048201529294509092506000916001600160a01b03909116906370a0823190602401602060405180830381865afa158015610e06573d6000803e3d6000fd5b505050506040513d601f19601f82011682018060405250810190610e2a9190613fbb565b6040516370a0823160e01b81523060048201529091506000906001600160a01b037f000000000000000000000000000000000000000000000000000000000000000016906370a0823190602401602060405180830381865afa158015610e94573d6000803e3d6000fd5b505050506040513d601f19601f82011682018060405250810190610eb89190613fbb565b600854909150610ef4906001600160a01b03167f0000000000000000000000000000000000000000000000000000000000000000868530612a24565b6008546040516370a0823160e01b81523060048201526000916001600160a01b0316906370a0823190602401602060405180830381865afa158015610f3d573d6000803e3d6000fd5b505050506040513d601f19601f82011682018060405250810190610f619190613fbb565b6040516370a0823160e01b81523060048201529091506000906001600160a01b037f000000000000000000000000000000000000000000000000000000000000000016906370a0823190602401602060405180830381865afa158015610fcb573d6000803e3d6000fd5b505050506040513d601f19601f82011682018060405250810190610fef9190613fbb565b90506000610ffd8386613fd4565b9050600061100b8584613fd4565b9050600087821115611024576110218883613fd4565b90505b60006110303383612b58565b60095460405163195006c760e11b815233600482015260ff7f00000000000000000000000000000000000000000000000000000000000000001660248201529192506000916001600160a01b03909116906332a00d8e90604401600060405180830381865afa1580156110a7573d6000803e3d6000fd5b505050506040513d6000823e601f3d908101601f191682016040526110cf919081019061400b565b905060005b81518160ff161015611149578a60136000848460ff16815181106110fa576110fa613ef8565b60200260200101516001600160a01b03166001600160a01b0316815260200190815260200160002060008282546111319190613fd4565b90915550819050611141816140aa565b9150506110d4565b5060006111568285612d40565b905060006103e86111688660056140c9565b61117291906140f6565b600c5460405163a9059cbb60e01b81529192506001600160a01b037f000000000000000000000000000000000000000000000000000000000000000081169263a9059cbb926111c79216908590600401613f0e565b6020604051808303816000875af11580156111e6573d6000803e3d6000fd5b505050506040513d601f19601f8201168201806040525081019061120a9190613f27565b5060006103e861121b8760056140c9565b61122591906140f6565b600b5460405163a9059cbb60e01b81529192506001600160a01b037f000000000000000000000000000000000000000000000000000000000000000081169263a9059cbb9261127a9216908590600401613f0e565b6020604051808303816000875af1158015611299573d6000803e3d6000fd5b505050506040513d601f19601f820116820180604052508101906112bd9190613f27565b5060006112c9886133e9565b90506112d48761344b565b7f00000000000000000000000000000000000000000000000000000000000000006001600160a01b031663a9059cbb33838587898c8f6113149190613fd4565b61131e9190613fd4565b6113289190613fd4565b6113329190613fd4565b61133c9190613fd4565b6040518363ffffffff1660e01b8152600401611359929190613f0e565b6020604051808303816000875af1158015611378573d6000803e3d6000fd5b505050506040513d601f19601f8201168201806040525081019061139c9190613f27565b506008546040516337470d6f60e21b8152600481018b90526001600160a01b039091169063dd1c35bc90602401600060405180830381600087803b1580156113e357600080fd5b505af11580156113f7573d6000803e3d6000fd5b505050508e9f505050505050505050505050505050505b919050565b60008061141e6115cb565b90506000600860009054906101000a90046001600160a01b03166001600160a01b0316631a7abd976040518163ffffffff1660e01b8152600401602060405180830381865afa158015611475573d6000803e3d6000fd5b505050506040513d601f19601f82011682018060405250810190611499919061410a565b905060006114a8606483614133565b6001600160701b03169050808311156114c5576000935050505090565b6114e16114d28483613fd4565b683635c9adc5dea00000613731565b935050505090565b601581815481106114f957600080fd5b60009182526020909120015464ffffffffff811691506501000000000090046001600160a01b031682565b6001600160a01b03811660009081526010602052604081208054156115c557805460009061155490600190613fd4565b90505b600082828154811061156b5761156b613ef8565b600091825260208220018054909250600160c81b900460ff16151590036115a25761159581611fb6565b61159f9085614159565b93505b816000036115b057506115c3565b50806115bb8161416c565b915050611557565b505b50919050565b6015546000908082036115e057600091505090565b60006115ed603c42613fd4565b600d549091506000611600600185613fd4565b90505b60006015828154811061161857611618613ef8565b6000918252602090912001805490915064ffffffffff1684111561163c5750611674565b80546001600160a01b0365010000000000909104169250816000036116615750611674565b508061166c8161416c565b915050611603565b5080600d546114e19190613fd4565b606060008060ff8416156116ae576001600160a01b03881660009081526012602052604090206116c7565b6001600160a01b03881660009081526010602052604090205b8054909150600160ff87161460008867ffffffffffffffff8111156116ee576116ee613dbd565b60405190808252806020026020018201604052801561172757816020015b611714613ab3565b81526020019060019003908161170c5790505b509050600080845b801561186a576000611742600183613fd4565b905085151588828154811061175957611759613ef8565b600091825260209091200154600160c81b900460ff16151503611857578d831015801561178557508c84105b156118495787818154811061179c5761179c613ef8565b60009182526020918290206040805160c081018252919092015463ffffffff8116825264ffffffffff600160201b82048116948301949094526001600160801b03600160481b8204169282019290925260ff600160c81b8304811615156060830152600160d01b8304166080820152600160d81b90910490911660a0820152855186908690811061182f5761182f613ef8565b6020026020010181905250838061184590614183565b9450505b8261185381614183565b9350505b50806118628161416c565b91505061172f565b508167ffffffffffffffff81111561188457611884613dbd565b6040519080825280602002602001820160405280156118bd57816020015b6118aa613ab3565b8152602001906001900390816118a25790505b50975060005b82811015611915578381815181106118dd576118dd613ef8565b60200260200101518982815181106118f7576118f7613ef8565b6020026020010181905250808061190d90614183565b9150506118c3565b50955050505050509550959350505050565b6000546001600160a01b031633146119515760405162461bcd60e51b815260040161089d90613f44565b600b80546001600160a01b0319166001600160a01b0392909216919091179055565b6000546001600160a01b0316331461199d5760405162461bcd60e51b815260040161089d90613f44565b610bd86005826003613ae8565b6000546001600160a01b031633146119d45760405162461bcd60e51b815260040161089d90613f44565b60085460405163a9059cbb60e01b81526001600160a01b039091169063a9059cbb9061091b9085908590600401613f0e565b60028160038110610bec57600080fd5b6000546001600160a01b03163314611a405760405162461bcd60e51b815260040161089d90613f44565b6101f48110611a7b5760405162461bcd60e51b81526020600482015260076024820152666d61782034392560c81b604482015260640161089d565b600a55565b323314611a9f5760405162461bcd60e51b815260040161089d90613f6a565b611aa7611413565b846001600160801b03161115611ae75760405162461bcd60e51b815260206004820152600560248201526403c313030360dc1b604482015260640161089d565b60028260ff161115611b215760405162461bcd60e51b81526020600482015260036024820152621e1e9960e91b604482015260640161089d565b611b2b848461205e565b600954604051633bb1db8160e21b81523360048201819052916001600160a01b03169063eec76e0490602401602060405180830381865afa158015611b74573d6000803e3d6000fd5b505050506040513d601f19601f82011682018060405250810190611b989190613f27565b158015611c0e5750600954604051633bb1db8160e21b81526001600160a01b0384811660048301529091169063eec76e0490602401602060405180830381865afa158015611bea573d6000803e3d6000fd5b505050506040513d601f19601f82011682018060405250810190611c0e9190613f27565b15611c7b57600954604051631ea690cf60e21b81526001600160a01b038481166004830152838116602483015290911690637a9a433c90604401600060405180830381600087803b158015611c6257600080fd5b505af1158015611c76573d6000803e3d6000fd5b505050505b611c86818685612344565b5050505050565b6000546001600160a01b03163314611cb75760405162461bcd60e51b815260040161089d90613f44565b600080546001600160a01b0319166001600160a01b0383169081178255604051909133917f8be0079c531659141344cd1fd0a4f28419497f9722a3daafe3b4186f6b6457e09190a350565b6000546001600160a01b03163314611d2c5760405162461bcd60e51b815260040161089d90613f44565b620151808164ffffffffff161115611d725760405162461bcd60e51b81526020600482015260096024820152686d617820312064617960b81b604482015260640161089d565b6011805464ffffffffff9092166101000265ffffffffff0019909216919091179055565b6001600160a01b03811660009081526014602090815260408083205460139092528220546107e79190614159565b6040516370a0823160e01b81523060048201526000907f00000000000000000000000000000000000000000000000000000000000000006001600160a01b0316906370a0823190602401602060405180830381865afa158015611e2b573d6000803e3d6000fd5b505050506040513d601f19601f82011682018060405250810190611e4f9190613fbb565b90506000600860009054906101000a90046001600160a01b03166001600160a01b03166349bd5a5e6040518163ffffffff1660e01b8152600401602060405180830381865afa158015611ea6573d6000803e3d6000fd5b505050506040513d601f19601f82011682018060405250810190611eca919061419c565b60405163a9059cbb60e01b81529091506001600160a01b037f0000000000000000000000000000000000000000000000000000000000000000169063a9059cbb90611f1b9084908690600401613f0e565b6020604051808303816000875af1158015611f3a573d6000803e3d6000fd5b505050506040513d601f19601f82011682018060405250810190611f5e9190613f27565b50806001600160a01b031663fff6cae96040518163ffffffff1660e01b8152600401600060405180830381600087803b158015611f9a57600080fd5b505af1158015611fae573d6000803e3d6000fd5b505050505050565b8054600090600160481b81046001600160801b031690600160201b900464ffffffffff1682611fe582426141b9565b9050611ff48162278d00613749565b90508064ffffffffff1660000361200d57829350612056565b84546120539061204c9064ffffffffff84169061204690600290600160d01b900460ff166003811061204157612041613ef8565b015490565b90613766565b84906137c8565b93505b505050919050565b6040516323b872dd60e01b81523360048201523060248201526001600160801b03831660448201527f00000000000000000000000000000000000000000000000000000000000000006001600160a01b0316906323b872dd906064016020604051808303816000875af11580156120d9573d6000803e3d6000fd5b505050506040513d601f19601f820116820180604052508101906120fd9190613f27565b506008546040516370a0823160e01b81523060048201526000916001600160a01b0316906370a0823190602401602060405180830381865afa158015612147573d6000803e3d6000fd5b505050506040513d601f19601f8201168201806040525081019061216b9190613fbb565b6008549091506121bb907f0000000000000000000000000000000000000000000000000000000000000000906001600160a01b03166121ab6002876141d7565b6001600160801b031685306137da565b6008546040516370a0823160e01b81523060048201526000916001600160a01b0316906370a0823190602401602060405180830381865afa158015612204573d6000803e3d6000fd5b505050506040513d601f19601f820116820180604052508101906122289190613fbb565b6008549091506001600160a01b037f000000000000000000000000000000000000000000000000000000000000000081169163e8e33700917f0000000000000000000000000000000000000000000000000000000000000000911661228e6002896141d7565b6122988787613fd4565b6040516001600160e01b031960e087901b1681526001600160a01b0394851660048201529390921660248401526001600160801b03166044830152606482015260006084820181905260a482015261dead60c48201524260e4820152610104016060604051808303816000875af1158015612317573d6000803e3d6000fd5b505050506040513d601f19601f8201168201806040525081019061233b91906141f1565b50505050505050565b600954604051633bb1db8160e21b81526001600160a01b0385811660048301529091169063eec76e0490602401602060405180830381865afa15801561238e573d6000803e3d6000fd5b505050506040513d601f19601f820116820180604052508101906123b29190613f27565b6123e75760405162461bcd60e51b81526020600482015260066024820152650848589a5b9960d21b604482015260640161089d565b604080518082019091526000808252602082015264ffffffffff4281168252600d80546001600160a01b039081166020850190815260158054600181018255600091825286517f55f448fdea98c4d29eb340757ef0a66cd03dbb9538908a6a81d96026b71ec4759091018054935190941665010000000000026001600160c81b031990931695169490941717905580546001600160801b038616929061248e908490614159565b90915550506001600160a01b0384166000908152600e6020526040812080546001600160801b03861692906124c4908490614159565b90915550506001600160a01b038416600090815260106020526040902080546124eb613ab3565b63ffffffff808316825264ffffffffff42811660208085019182526001600160801b03808b16604080880191825260ff808d1660808a019081528b54600181018d5560008d81529687208b51910180549851955160608d0151935160a08e01518c16600160d81b026001600160d81b0391909616600160d01b02166001600160d01b03941515600160c81b0260ff60c81b1992909916600160481b0291909116600160481b600160d01b031997909b16600160201b0268ffffffffffffffffff19909a1692909b1691909117979097179390931696909617929092171694909417929092179055600954915163195006c760e11b815290916001600160a01b0316906332a00d8e9061263a908b907f0000000000000000000000000000000000000000000000000000000000000000906004016001600160a01b0392909216825260ff16602082015260400190565b600060405180830381865afa158015612657573d6000803e3d6000fd5b505050506040513d6000823e601f3d908101601f1916820160405261267f919081019061400b565b905060005b81518160ff16101561270257876001600160801b031660136000848460ff16815181106126b3576126b3613ef8565b60200260200101516001600160a01b03166001600160a01b0316815260200190815260200160002060008282546126ea9190614159565b909155508190506126fa816140aa565b915050612684565b506040516001600160801b03881681526001600160a01b038916906000907fddf252ad1be2c89b69c2b068fc378daa952ba7f163c4a11628f55a4df523b3ef9060200160405180910390a3876001600160a01b03167f9cfd25589d1eb8ad71e342a86a8524e83522e3936c0803048c08f6d9ad974f4088428660058b60ff166003811061279157612791613ef8565b0154604080516001600160801b039095168552602085019390935291830152606082015260800160405180910390a25050505050505050565b33600081815260106020526040812080549192839290919083908290879081106127f6576127f6613ef8565b60009182526020909120018054909150600160201b810464ffffffffff1690600590600160d01b900460ff166003811061283257612832613ef8565b015461283e8242613fd4565b10156128845760405162461bcd60e51b8152602060048201526015602482015274151a19481d1a5b59481a5cc81b9bdd081c9a59da1d605a1b604482015260640161089d565b8154600160c81b900460ff16156128c35760405162461bcd60e51b8152602060048201526003602482015262616c7760e81b604482015260640161089d565b8154600d8054600160481b9092046001600160801b0316965086916000906128ec908490613fd4565b90915550506001600160a01b0384166000908152600e602052604081208054879290612919908490613fd4565b90915550506040518581526000906001600160a01b038616907fddf252ad1be2c89b69c2b068fc378daa952ba7f163c4a11628f55a4df523b3ef9060200160405180910390a361296882611fb6565b825464ffffffffff4216600160d81b02600161ff0160c81b0390911617600160c81b1783556001600160a01b0385166000908152600f60205260409020549096506129b4906001614159565b6001600160a01b0385166000818152600f602090815260409182902093909355805189815264ffffffffff4216938101939093528201899052907f9b467b2d1b181e5ff3549b4d62043bb6a5822c6c11446546a3671e3493a3530b9060600160405180910390a250505050915091565b60408051600280825260608201835260009260208301908036833750506040805160028082526060820183529394509291506020830190803683370190505090508581600081518110612a7957612a79613ef8565b60200260200101906001600160a01b031690816001600160a01b0316815250508481600181518110612aad57612aad613ef8565b6001600160a01b039283166020918202929092010152604051634401edf760e11b81527f000000000000000000000000000000000000000000000000000000000000000090911690638803dbee90612b119087908790869088904290600401614263565b6000604051808303816000875af1158015612b30573d6000803e3d6000fd5b505050506040513d6000823e601f3d908101601f1916820160405261233b919081019061429f565b60006064612b678360056140c9565b612b7191906140f6565b600954604051633b0f0f2f60e01b81526001600160a01b03868116600483015292935060009290911690633b0f0f2f90602401602060405180830381865afa158015612bc1573d6000803e3d6000fd5b505050506040513d601f19601f82011682018060405250810190612be5919061419c565b90506001600160a01b03811615801590612c035750612c0381610c98565b15612c9f5760405163a9059cbb60e01b81526001600160a01b037f0000000000000000000000000000000000000000000000000000000000000000169063a9059cbb90612c569084908690600401613f0e565b6020604051808303816000875af1158015612c75573d6000803e3d6000fd5b505050506040513d601f19601f82011682018060405250810190612c999190613f27565b50612d39565b600b5460405163a9059cbb60e01b81526001600160a01b037f000000000000000000000000000000000000000000000000000000000000000081169263a9059cbb92612cf49291909116908690600401613f0e565b6020604051808303816000875af1158015612d13573d6000803e3d6000fd5b505050506040513d601f19601f82011682018060405250810190612d379190613f27565b505b5092915050565b600080806018816064612d5383886140c9565b612d5d91906140f6565b945060005b875181101561331e57878181518110612d7d57612d7d613ef8565b60200260200101519450612d9085610c98565b1561330c57612d9e85611d96565b93506a027b46536c66c8e30000008410158015612dba57508183115b15612e74576001600160a01b037f00000000000000000000000000000000000000000000000000000000000000001663a9059cbb866064612dfb8688613fd4565b612e05908c6140c9565b612e0f91906140f6565b6040518363ffffffff1660e01b8152600401612e2c929190613f0e565b6020604051808303816000875af1158015612e4b573d6000803e3d6000fd5b505050506040513d601f19601f82011682018060405250810190612e6f9190613f27565b508291505b69d3c21bcecceda10000008410158015612e9857506a027b46536c66c8e300000084105b8015612ea45750601482105b15612f60576001600160a01b037f00000000000000000000000000000000000000000000000000000000000000001663a9059cbb866064612ee6866014613fd4565b612ef0908c6140c9565b612efa91906140f6565b6040518363ffffffff1660e01b8152600401612f17929190613f0e565b6020604051808303816000875af1158015612f36573d6000803e3d6000fd5b505050506040513d601f19601f82011682018060405250810190612f5a9190613f27565b50601491505b6969e10de76676d08000008410158015612f83575069d3c21bcecceda100000084105b8015612f8f5750601182105b1561304b576001600160a01b037f00000000000000000000000000000000000000000000000000000000000000001663a9059cbb866064612fd1866011613fd4565b612fdb908c6140c9565b612fe591906140f6565b6040518363ffffffff1660e01b8152600401613002929190613f0e565b6020604051808303816000875af1158015613021573d6000803e3d6000fd5b505050506040513d601f19601f820116820180604052508101906130459190613f27565b50601191505b69152d02c7e14af6800000841015801561306e57506969e10de76676d080000084105b801561307a5750600d82105b15613136576001600160a01b037f00000000000000000000000000000000000000000000000000000000000000001663a9059cbb8660646130bc86600d613fd4565b6130c6908c6140c9565b6130d091906140f6565b6040518363ffffffff1660e01b81526004016130ed929190613f0e565b6020604051808303816000875af115801561310c573d6000803e3d6000fd5b505050506040513d601f19601f820116820180604052508101906131309190613f27565b50600d91505b690a968163f0a57b4000008410158015613159575069152d02c7e14af680000084105b80156131655750600982105b15613221576001600160a01b037f00000000000000000000000000000000000000000000000000000000000000001663a9059cbb8660646131a7866009613fd4565b6131b1908c6140c9565b6131bb91906140f6565b6040518363ffffffff1660e01b81526004016131d8929190613f0e565b6020604051808303816000875af11580156131f7573d6000803e3d6000fd5b505050506040513d601f19601f8201168201806040525081019061321b9190613f27565b50600991505b69021e19e0c9bab240000084101580156132445750690a968163f0a57b40000084105b80156132505750600582105b1561330c576001600160a01b037f00000000000000000000000000000000000000000000000000000000000000001663a9059cbb866064613292866005613fd4565b61329c908c6140c9565b6132a691906140f6565b6040518363ffffffff1660e01b81526004016132c3929190613f0e565b6020604051808303816000875af11580156132e2573d6000803e3d6000fd5b505050506040513d601f19601f820116820180604052508101906133069190613f27565b50600591505b8061331681614183565b915050612d62565b50808211156133df57600b546001600160a01b037f000000000000000000000000000000000000000000000000000000000000000081169163a9059cbb91166064613369858b6140c9565b61337391906140f6565b61337d9089613fd4565b6040518363ffffffff1660e01b815260040161339a929190613f0e565b6020604051808303816000875af11580156133b9573d6000803e3d6000fd5b505050506040513d601f19601f820116820180604052508101906133dd9190613f27565b505b5050505092915050565b60006103e8600a54836133fc91906140c9565b61340691906140f6565b9050801561140e5760085461140e907f0000000000000000000000000000000000000000000000000000000000000000906001600160a01b031683600061dead6137da565b60115460ff16158061345b575080155b156134635750565b6040516323b872dd60e01b8152336004820152306024820152604481018290527f00000000000000000000000000000000000000000000000000000000000000006001600160a01b0316906323b872dd906064016020604051808303816000875af11580156134d6573d6000803e3d6000fd5b505050506040513d601f19601f820116820180604052508101906134fa9190613f27565b506008546040516370a0823160e01b81523060048201526000916001600160a01b0316906370a0823190602401602060405180830381865afa158015613544573d6000803e3d6000fd5b505050506040513d601f19601f820116820180604052508101906135689190613fbb565b6008549091506135a6907f0000000000000000000000000000000000000000000000000000000000000000906001600160a01b0316846000306137da565b6008546040516370a0823160e01b81523060048201526000916001600160a01b0316906370a0823190602401602060405180830381865afa1580156135ef573d6000803e3d6000fd5b505050506040513d601f19601f820116820180604052508101906136139190613fbb565b905061361d613ab3565b3360009081526012602090815260409091205463ffffffff16825264ffffffffff42169082015261364e8383613fd4565b6001600160801b039081166040838101918252336000908152601260209081529181208054600181018255908252908290208551910180549286015193516060870151608088015160a09098015163ffffffff90941668ffffffffffffffffff1990951694909417600160201b64ffffffffff9687160217600160481b600160d01b031916600160481b919096160260ff60c81b191694909417600160c81b92151592909202919091176001600160d01b0316600160d01b60ff909516949094026001600160d81b031693909317600160d81b9190931602919091179055505050565b60008183106137405781613742565b825b9392505050565b60008164ffffffffff168364ffffffffff16106137405781613742565b600082816001841661378057670de0b6b3a7640000613782565b815b9050600184901c93505b83156137c05761379c82836139fd565b915060018416156137b4576137b181836139fd565b90505b600184901c935061378c565b949350505050565b60006137426137d784846139fd565b90565b6040805160028082526060820183526000926020830190803683375050604080516002808252606082018352939450929150602083019080368337019050509050858160008151811061382f5761382f613ef8565b60200260200101906001600160a01b031690816001600160a01b031681525050848160018151811061386357613863613ef8565b60200260200101906001600160a01b031690816001600160a01b0316815250508260000361396f5760405163d06ca61f60e01b81526000906001600160a01b037f0000000000000000000000000000000000000000000000000000000000000000169063d06ca61f906138dc9088908690600401614325565b600060405180830381865afa1580156138f9573d6000803e3d6000fd5b505050506040513d6000823e601f3d908101601f19168201604052613921919081019061429f565b90506064613930600582613fd4565b826001845161393f9190613fd4565b8151811061394f5761394f613ef8565b602002602001015161396191906140c9565b61396b91906140f6565b9350505b604051635c11d79560e01b81526001600160a01b037f00000000000000000000000000000000000000000000000000000000000000001690635c11d795906139c39087908790869088904290600401614263565b600060405180830381600087803b1580156139dd57600080fd5b505af11580156139f1573d6000803e3d6000fd5b50505050505050505050565b6000808060001984860984860292508281108382030391505080600003613a315750670de0b6b3a7640000900490506107e7565b670de0b6b3a76400008110613a6357604051635173648d60e01b8152600481018690526024810185905260440161089d565b6000670de0b6b3a764000085870962040000818503049310909103600160ee1b02919091177faccb18165bd6fe31ae1cf318dc5b51eee0e1ba569b88cd74c1773b91fac106690291505092915050565b6040805160c081018252600080825260208201819052918101829052606081018290526080810182905260a081019190915290565b8260038101928215613b16579160200282015b82811115613b16578251825591602001919060010190613afb565b50613b22929150613b26565b5090565b5b80821115613b225760008155600101613b27565b6001600160a01b0381168114613b5057600080fd5b50565b803560ff8116811461140e57600080fd5b60008060408385031215613b7757600080fd5b8235613b8281613b3b565b9150613b9060208401613b53565b90509250929050565b600060208083528351808285015260005b81811015613bc657858101830151858201604001528201613baa565b506000604082860101526040601f19601f8301168501019250505092915050565b60008060408385031215613bfa57600080fd5b8235613c0581613b3b565b946020939093013593505050565b600060208284031215613c2557600080fd5b5035919050565b600060208284031215613c3e57600080fd5b813561374281613b3b565b8015158114613b5057600080fd5b600060208284031215613c6957600080fd5b813561374281613c49565b80356001600160801b038116811461140e57600080fd5b600080600060608486031215613ca057600080fd5b613ca984613c74565b925060208401359150613cbe60408501613b53565b90509250925092565b600080600080600060a08688031215613cdf57600080fd5b8535613cea81613b3b565b94506020860135935060408601359250613d0660608701613b53565b9150613d1460808701613b53565b90509295509295909350565b6040808252835182820181905260009190606090818501906020808901865b83811015613da9578151805163ffffffff1686528381015164ffffffffff90811685880152888201516001600160801b0316898801528782015115158888015260808083015160ff169088015260a091820151169086015260c09094019390820190600101613d3f565b505095909501959095525092949350505050565b634e487b7160e01b600052604160045260246000fd5b604051601f8201601f1916810167ffffffffffffffff81118282101715613dfc57613dfc613dbd565b604052919050565b600060608284031215613e1657600080fd5b82601f830112613e2557600080fd5b6040516060810181811067ffffffffffffffff82111715613e4857613e48613dbd565b604052806060840185811115613e5d57600080fd5b845b81811015613e77578035835260209283019201613e5f565b509195945050505050565b60008060008060808587031215613e9857600080fd5b613ea185613c74565b935060208501359250613eb660408601613b53565b91506060850135613ec681613b3b565b939692955090935050565b600060208284031215613ee357600080fd5b813564ffffffffff8116811461374257600080fd5b634e487b7160e01b600052603260045260246000fd5b6001600160a01b03929092168252602082015260400190565b600060208284031215613f3957600080fd5b815161374281613c49565b6020808252600c908201526b15539055551213d49256915160a21b604082015260600190565b602080825260039082015262454f4160e81b604082015260600190565b634e487b7160e01b600052601160045260246000fd5b64ffffffffff818116838216019080821115612d3957612d39613f87565b600060208284031215613fcd57600080fd5b5051919050565b818103818111156107e7576107e7613f87565b600067ffffffffffffffff82111561400157614001613dbd565b5060051b60200190565b6000602080838503121561401e57600080fd5b825167ffffffffffffffff81111561403557600080fd5b8301601f8101851361404657600080fd5b805161405961405482613fe7565b613dd3565b81815260059190911b8201830190838101908783111561407857600080fd5b928401925b8284101561409f57835161409081613b3b565b8252928401929084019061407d565b979650505050505050565b600060ff821660ff81036140c0576140c0613f87565b60010192915050565b80820281158282048414176107e7576107e7613f87565b634e487b7160e01b600052601260045260246000fd5b600082614105576141056140e0565b500490565b60006020828403121561411c57600080fd5b81516001600160701b038116811461374257600080fd5b60006001600160701b038084168061414d5761414d6140e0565b92169190910492915050565b808201808211156107e7576107e7613f87565b60008161417b5761417b613f87565b506000190190565b60006001820161419557614195613f87565b5060010190565b6000602082840312156141ae57600080fd5b815161374281613b3b565b64ffffffffff828116828216039080821115612d3957612d39613f87565b60006001600160801b038084168061414d5761414d6140e0565b60008060006060848603121561420657600080fd5b8351925060208401519150604084015190509250925092565b600081518084526020808501945080840160005b838110156142585781516001600160a01b031687529582019590820190600101614233565b509495945050505050565b85815284602082015260a06040820152600061428260a083018661421f565b6001600160a01b0394909416606083015250608001529392505050565b600060208083850312156142b257600080fd5b825167ffffffffffffffff8111156142c957600080fd5b8301601f810185136142da57600080fd5b80516142e861405482613fe7565b81815260059190911b8201830190838101908783111561430757600080fd5b928401925b8284101561409f5783518252928401929084019061430c565b8281526040602082015260006137c0604083018461421f56fea26469706673582212208cec113f63800bfb117e51e550a00e46ec6c880e0c61a5b451a48b5e7378836a64736f6c63430008140033",
  "devdoc": {
    "kind": "dev",
    "methods": {},
    "version": 1
  },
  "userdoc": {
    "errors": {
      "PRBMath_MulDiv18_Overflow(uint256,uint256)": [
        {
          "notice": "Thrown when the resultant value in {mulDiv18} overflows uint256."
        }
      ]
    },
    "kind": "user",
    "methods": {},
    "version": 1
  },
  "storageLayout": {
    "storage": [
      {
        "astId": 9788,
        "contract": "contracts/AvaStaking.sol:AvaStaking",
        "label": "owner",
        "offset": 0,
        "slot": "0",
        "type": "t_address"
      },
      {
        "astId": 9790,
        "contract": "contracts/AvaStaking.sol:AvaStaking",
        "label": "abandonedBalanceOwner",
        "offset": 0,
        "slot": "1",
        "type": "t_address"
      },
      {
        "astId": 7665,
        "contract": "contracts/AvaStaking.sol:AvaStaking",
        "label": "rates",
        "offset": 0,
        "slot": "2",
        "type": "t_array(t_uint256)3_storage"
      },
      {
        "astId": 7673,
        "contract": "contracts/AvaStaking.sol:AvaStaking",
        "label": "stakeDays",
        "offset": 0,
        "slot": "5",
        "type": "t_array(t_uint256)3_storage"
      },
      {
        "astId": 7679,
        "contract": "contracts/AvaStaking.sol:AvaStaking",
        "label": "AVA",
        "offset": 0,
        "slot": "8",
        "type": "t_contract(IAVA)10278"
      },
      {
        "astId": 7682,
        "contract": "contracts/AvaStaking.sol:AvaStaking",
        "label": "REFERRAL",
        "offset": 0,
        "slot": "9",
        "type": "t_contract(IReferral)10330"
      },
      {
        "astId": 7684,
        "contract": "contracts/AvaStaking.sol:AvaStaking",
        "label": "unStakeFee",
        "offset": 0,
        "slot": "10",
        "type": "t_uint256"
      },
      {
        "astId": 7686,
        "contract": "contracts/AvaStaking.sol:AvaStaking",
        "label": "marketingAddress",
        "offset": 0,
        "slot": "11",
        "type": "t_address"
      },
      {
        "astId": 7688,
        "contract": "contracts/AvaStaking.sol:AvaStaking",
        "label": "technologyAddress",
        "offset": 0,
        "slot": "12",
        "type": "t_address"
      },
      {
        "astId": 7699,
        "contract": "contracts/AvaStaking.sol:AvaStaking",
        "label": "totalSupply",
        "offset": 0,
        "slot": "13",
        "type": "t_uint256"
      },
      {
        "astId": 7703,
        "contract": "contracts/AvaStaking.sol:AvaStaking",
        "label": "balances",
        "offset": 0,
        "slot": "14",
        "type": "t_mapping(t_address,t_uint256)"
      },
      {
        "astId": 7707,
        "contract": "contracts/AvaStaking.sol:AvaStaking",
        "label": "userIndex",
        "offset": 0,
        "slot": "15",
        "type": "t_mapping(t_address,t_uint256)"
      },
      {
        "astId": 7713,
        "contract": "contracts/AvaStaking.sol:AvaStaking",
        "label": "userStakeRecord",
        "offset": 0,
        "slot": "16",
        "type": "t_mapping(t_address,t_array(t_struct(Record)7757_storage)dyn_storage)"
      },
      {
        "astId": 7715,
        "contract": "contracts/AvaStaking.sol:AvaStaking",
        "label": "isBuyUnStake",
        "offset": 0,
        "slot": "17",
        "type": "t_bool"
      },
      {
        "astId": 7718,
        "contract": "contracts/AvaStaking.sol:AvaStaking",
        "label": "unStakeDay",
        "offset": 1,
        "slot": "17",
        "type": "t_uint40"
      },
      {
        "astId": 7724,
        "contract": "contracts/AvaStaking.sol:AvaStaking",
        "label": "userUnStakeRecord",
        "offset": 0,
        "slot": "18",
        "type": "t_mapping(t_address,t_array(t_struct(Record)7757_storage)dyn_storage)"
      },
      {
        "astId": 7728,
        "contract": "contracts/AvaStaking.sol:AvaStaking",
        "label": "teamTotalInvestValue",
        "offset": 0,
        "slot": "19",
        "type": "t_mapping(t_address,t_uint256)"
      },
      {
        "astId": 7732,
        "contract": "contracts/AvaStaking.sol:AvaStaking",
        "label": "teamVirtuallyInvestValue",
        "offset": 0,
        "slot": "20",
        "type": "t_mapping(t_address,t_uint256)"
      },
      {
        "astId": 7739,
        "contract": "contracts/AvaStaking.sol:AvaStaking",
        "label": "t_supply",
        "offset": 0,
        "slot": "21",
        "type": "t_array(t_struct(RecordTT)7744_storage)dyn_storage"
      }
    ],
    "types": {
      "t_address": {
        "encoding": "inplace",
        "label": "address",
        "numberOfBytes": "20"
      },
      "t_array(t_struct(Record)7757_storage)dyn_storage": {
        "base": "t_struct(Record)7757_storage",
        "encoding": "dynamic_array",
        "label": "struct AvaStaking.Record[]",
        "numberOfBytes": "32"
      },
      "t_array(t_struct(RecordTT)7744_storage)dyn_storage": {
        "base": "t_struct(RecordTT)7744_storage",
        "encoding": "dynamic_array",
        "label": "struct AvaStaking.RecordTT[]",
        "numberOfBytes": "32"
      },
      "t_array(t_uint256)3_storage": {
        "base": "t_uint256",
        "encoding": "inplace",
        "label": "uint256[3]",
        "numberOfBytes": "96"
      },
      "t_bool": {
        "encoding": "inplace",
        "label": "bool",
        "numberOfBytes": "1"
      },
      "t_contract(IAVA)10278": {
        "encoding": "inplace",
        "label": "contract IAVA",
        "numberOfBytes": "20"
      },
      "t_contract(IReferral)10330": {
        "encoding": "inplace",
        "label": "contract IReferral",
        "numberOfBytes": "20"
      },
      "t_mapping(t_address,t_array(t_struct(Record)7757_storage)dyn_storage)": {
        "encoding": "mapping",
        "key": "t_address",
        "label": "mapping(address => struct AvaStaking.Record[])",
        "numberOfBytes": "32",
        "value": "t_array(t_struct(Record)7757_storage)dyn_storage"
      },
      "t_mapping(t_address,t_uint256)": {
        "encoding": "mapping",
        "key": "t_address",
        "label": "mapping(address => uint256)",
        "numberOfBytes": "32",
        "value": "t_uint256"
      },
      "t_struct(Record)7757_storage": {
        "encoding": "inplace",
        "label": "struct AvaStaking.Record",
        "members": [
          {
            "astId": 7746,
            "contract": "contracts/AvaStaking.sol:AvaStaking",
            "label": "id",
            "offset": 0,
            "slot": "0",
            "type": "t_uint32"
          },
          {
            "astId": 7748,
            "contract": "contracts/AvaStaking.sol:AvaStaking",
            "label": "stakeTime",
            "offset": 4,
            "slot": "0",
            "type": "t_uint40"
          },
          {
            "astId": 7750,
            "contract": "contracts/AvaStaking.sol:AvaStaking",
            "label": "amount",
            "offset": 9,
            "slot": "0",
            "type": "t_uint128"
          },
          {
            "astId": 7752,
            "contract": "contracts/AvaStaking.sol:AvaStaking",
            "label": "status",
            "offset": 25,
            "slot": "0",
            "type": "t_bool"
          },
          {
            "astId": 7754,
            "contract": "contracts/AvaStaking.sol:AvaStaking",
            "label": "stakeIndex",
            "offset": 26,
            "slot": "0",
            "type": "t_uint8"
          },
          {
            "astId": 7756,
            "contract": "contracts/AvaStaking.sol:AvaStaking",
            "label": "unStakeTime",
            "offset": 27,
            "slot": "0",
            "type": "t_uint40"
          }
        ],
        "numberOfBytes": "32"
      },
      "t_struct(RecordTT)7744_storage": {
        "encoding": "inplace",
        "label": "struct AvaStaking.RecordTT",
        "members": [
          {
            "astId": 7741,
            "contract": "contracts/AvaStaking.sol:AvaStaking",
            "label": "stakeTime",
            "offset": 0,
            "slot": "0",
            "type": "t_uint40"
          },
          {
            "astId": 7743,
            "contract": "contracts/AvaStaking.sol:AvaStaking",
            "label": "tamount",
            "offset": 5,
            "slot": "0",
            "type": "t_uint160"
          }
        ],
        "numberOfBytes": "32"
      },
      "t_uint128": {
        "encoding": "inplace",
        "label": "uint128",
        "numberOfBytes": "16"
      },
      "t_uint160": {
        "encoding": "inplace",
        "label": "uint160",
        "numberOfBytes": "20"
      },
      "t_uint256": {
        "encoding": "inplace",
        "label": "uint256",
        "numberOfBytes": "32"
      },
      "t_uint32": {
        "encoding": "inplace",
        "label": "uint32",
        "numberOfBytes": "4"
      },
      "t_uint40": {
        "encoding": "inplace",
        "label": "uint40",
        "numberOfBytes": "5"
      },
      "t_uint8": {
        "encoding": "inplace",
        "label": "uint8",
        "numberOfBytes": "1"
      }
    }
  }
}