{
  "address": "0xeB270359Faa618378ad325691F894b52CA50b520",
  "abi": [
    {
      "inputs": [
        {
          "components": [
            {
              "internalType": "address",
              "name": "target",
              "type": "address"
            },
            {
              "internalType": "bytes",
              "name": "callData",
              "type": "bytes"
            }
          ],
          "internalType": "struct Multicall.Call[]",
          "name": "calls",
          "type": "tuple[]"
        }
      ],
      "name": "aggregate",
      "outputs": [
        {
          "internalType": "bytes[]",
          "name": "returnData",
          "type": "bytes[]"
        }
      ],
      "stateMutability": "view",
      "type": "function"
    }
  ],
  "transactionHash": "0x0493cad6a1d202a3dbcd79f8add140a611e5c0ccce60246976ba26410de1ab8c",
  "args": [],
  "numDeployments": 1,
  "solcInputHash": "a6eef9508ab1331ca909ac77bef3b773",
  "bytecode": "0x608060405234801561001057600080fd5b50610523806100206000396000f3fe608060405234801561001057600080fd5b506004361061002b5760003560e01c8063252dba4214610030575b600080fd5b61004361003e366004610289565b610059565b604051610050919061041a565b60405180910390f35b6060815167ffffffffffffffff81111561007557610075610219565b6040519080825280602002602001820160405280156100a857816020015b60608152602001906001900390816100935790505b50905060005b82518110156102135760008382815181106100cb576100cb610494565b60200260200101516020015151111561019a5760008382815181106100f2576100f2610494565b6020026020010151600001516001600160a01b031684838151811061011957610119610494565b60200260200101516020015160405161013291906104aa565b600060405180830381855afa9150503d806000811461016d576040519150601f19603f3d011682016040523d82523d6000602084013e610172565b606091505b509150508083838151811061018957610189610494565b602002602001018190525050610201565b8281815181106101ac576101ac610494565b6020026020010151600001516001600160a01b0316316040516020016101d491815260200190565b6040516020818303038152906040528282815181106101f5576101f5610494565b60200260200101819052505b8061020b816104c6565b9150506100ae565b50919050565b634e487b7160e01b600052604160045260246000fd5b6040805190810167ffffffffffffffff8111828210171561025257610252610219565b60405290565b604051601f8201601f1916810167ffffffffffffffff8111828210171561028157610281610219565b604052919050565b6000602080838503121561029c57600080fd5b823567ffffffffffffffff808211156102b457600080fd5b818501915085601f8301126102c857600080fd5b8135818111156102da576102da610219565b8060051b6102e9858201610258565b918252838101850191858101908984111561030357600080fd5b86860192505b838310156103e9578235858111156103215760008081fd5b86016040601f19828d03810182131561033a5760008081fd5b61034261022f565b838b01356001600160a01b038116811461035c5760008081fd5b815283830135898111156103705760008081fd5b8085019450508d603f8501126103865760008081fd5b8a8401358981111561039a5761039a610219565b6103aa8c84601f84011601610258565b92508083528e848287010111156103c15760008081fd5b808486018d85013760009083018c0152808b0191909152845250509186019190860190610309565b9998505050505050505050565b60005b838110156104115781810151838201526020016103f9565b50506000910152565b6000602080830181845280855180835260408601915060408160051b870101925083870160005b8281101561048757878503603f1901845281518051808752610468818989018a85016103f6565b601f01601f191695909501860194509285019290850190600101610441565b5092979650505050505050565b634e487b7160e01b600052603260045260246000fd5b600082516104bc8184602087016103f6565b9190910192915050565b6000600182016104e657634e487b7160e01b600052601160045260246000fd5b506001019056fea26469706673582212203e6d617ce8206f084549d5e4807e0b206e2a9ece19fb1c6dd6613f11c9bb048a64736f6c63430008140033",
  "devdoc": {
    "kind": "dev",
    "methods": {},
    "version": 1
  },
  "userdoc": {
    "kind": "user",
    "methods": {},
    "version": 1
  },
  "storageLayout": {
    "storage": [],
    "types": null
  }
}